{
  "contractName": "SupplyChain",
  "abi": [
    {
      "inputs": [],
      "stateMutability": "nonpayable",
      "type": "constructor"
    },
    {
      "inputs": [
        {
          "internalType": "uint256",
          "name": "",
          "type": "uint256"
        }
      ],
      "name": "Actions",
      "outputs": [
        {
          "internalType": "uint256",
          "name": "id",
          "type": "uint256"
        },
        {
          "internalType": "enum SupplyChain.ACTION_TYPE",
          "name": "actionType",
          "type": "uint8"
        },
        {
          "internalType": "uint256",
          "name": "timestamp",
          "type": "uint256"
        },
        {
          "internalType": "uint256",
          "name": "duration",
          "type": "uint256"
        },
        {
          "internalType": "string",
          "name": "hashFileAction",
          "type": "string"
        }
      ],
      "stateMutability": "view",
      "type": "function",
      "constant": true
    },
    {
      "inputs": [
        {
          "internalType": "uint256",
          "name": "",
          "type": "uint256"
        }
      ],
      "name": "Actors",
      "outputs": [
        {
          "internalType": "uint256",
          "name": "id",
          "type": "uint256"
        },
        {
          "internalType": "address",
          "name": "addr",
          "type": "address"
        },
        {
          "internalType": "enum SupplyChain.ROLE",
          "name": "role",
          "type": "uint8"
        },
        {
          "internalType": "string",
          "name": "name",
          "type": "string"
        },
        {
          "internalType": "string",
          "name": "place",
          "type": "string"
        },
        {
          "internalType": "string",
          "name": "hashFileActor",
          "type": "string"
        }
      ],
      "stateMutability": "view",
      "type": "function",
      "constant": true
    },
    {
      "inputs": [
        {
          "internalType": "uint256",
          "name": "",
          "type": "uint256"
        }
      ],
      "name": "DisLotStock",
      "outputs": [
        {
          "internalType": "uint256",
          "name": "id",
          "type": "uint256"
        },
        {
          "internalType": "uint256",
          "name": "absolute_id",
          "type": "uint256"
        },
        {
          "internalType": "uint256",
          "name": "id_product",
          "type": "uint256"
        },
        {
          "internalType": "uint256",
          "name": "size",
          "type": "uint256"
        },
        {
          "internalType": "string",
          "name": "location",
          "type": "string"
        },
        {
          "internalType": "address",
          "name": "actor",
          "type": "address"
        }
      ],
      "stateMutability": "view",
      "type": "function",
      "constant": true
    },
    {
      "inputs": [
        {
          "internalType": "uint256",
          "name": "",
          "type": "uint256"
        }
      ],
      "name": "LotStock",
      "outputs": [
        {
          "internalType": "uint256",
          "name": "id",
          "type": "uint256"
        },
        {
          "internalType": "uint256",
          "name": "id_product",
          "type": "uint256"
        },
        {
          "internalType": "uint256",
          "name": "size",
          "type": "uint256"
        },
        {
          "internalType": "enum SupplyChain.STAGE",
          "name": "stage",
          "type": "uint8"
        },
        {
          "internalType": "bool",
          "name": "active",
          "type": "bool"
        }
      ],
      "stateMutability": "view",
      "type": "function",
      "constant": true
    },
    {
      "inputs": [
        {
          "internalType": "uint256",
          "name": "",
          "type": "uint256"
        }
      ],
      "name": "ManLotStock",
      "outputs": [
        {
          "internalType": "uint256",
          "name": "id",
          "type": "uint256"
        },
        {
          "internalType": "uint256",
          "name": "absolute_id",
          "type": "uint256"
        },
        {
          "internalType": "uint256",
          "name": "id_product",
          "type": "uint256"
        },
        {
          "internalType": "uint256",
          "name": "size",
          "type": "uint256"
        },
        {
          "internalType": "string",
          "name": "location",
          "type": "string"
        },
        {
          "internalType": "address",
          "name": "actor",
          "type": "address"
        }
      ],
      "stateMutability": "view",
      "type": "function",
      "constant": true
    },
    {
      "inputs": [],
      "name": "Owner",
      "outputs": [
        {
          "internalType": "address",
          "name": "",
          "type": "address"
        }
      ],
      "stateMutability": "view",
      "type": "function",
      "constant": true
    },
    {
      "inputs": [
        {
          "internalType": "uint256",
          "name": "",
          "type": "uint256"
        }
      ],
      "name": "ProductStock",
      "outputs": [
        {
          "internalType": "uint256",
          "name": "id",
          "type": "uint256"
        },
        {
          "internalType": "string",
          "name": "name",
          "type": "string"
        },
        {
          "internalType": "bool",
          "name": "simple",
          "type": "bool"
        },
        {
          "internalType": "bool",
          "name": "active",
          "type": "bool"
        }
      ],
      "stateMutability": "view",
      "type": "function",
      "constant": true
    },
    {
      "inputs": [
        {
          "internalType": "uint256",
          "name": "",
          "type": "uint256"
        }
      ],
      "name": "RetLotStock",
      "outputs": [
        {
          "internalType": "uint256",
          "name": "id",
          "type": "uint256"
        },
        {
          "internalType": "uint256",
          "name": "absolute_id",
          "type": "uint256"
        },
        {
          "internalType": "uint256",
          "name": "id_product",
          "type": "uint256"
        },
        {
          "internalType": "uint256",
          "name": "size",
          "type": "uint256"
        },
        {
          "internalType": "string",
          "name": "location",
          "type": "string"
        },
        {
          "internalType": "address",
          "name": "actor",
          "type": "address"
        }
      ],
      "stateMutability": "view",
      "type": "function",
      "constant": true
    },
    {
      "inputs": [
        {
          "internalType": "uint256",
          "name": "",
          "type": "uint256"
        }
      ],
      "name": "SupLotStock",
      "outputs": [
        {
          "internalType": "uint256",
          "name": "id",
          "type": "uint256"
        },
        {
          "internalType": "uint256",
          "name": "absolute_id",
          "type": "uint256"
        },
        {
          "internalType": "uint256",
          "name": "id_product",
          "type": "uint256"
        },
        {
          "internalType": "uint256",
          "name": "size",
          "type": "uint256"
        },
        {
          "internalType": "string",
          "name": "location",
          "type": "string"
        },
        {
          "internalType": "address",
          "name": "actor",
          "type": "address"
        }
      ],
      "stateMutability": "view",
      "type": "function",
      "constant": true
    },
    {
      "inputs": [],
      "name": "absoluteCtr",
      "outputs": [
        {
          "internalType": "uint256",
          "name": "",
          "type": "uint256"
        }
      ],
      "stateMutability": "view",
      "type": "function",
      "constant": true
    },
    {
      "inputs": [],
      "name": "actionCtr",
      "outputs": [
        {
          "internalType": "uint256",
          "name": "",
          "type": "uint256"
        }
      ],
      "stateMutability": "view",
      "type": "function",
      "constant": true
    },
    {
      "inputs": [],
      "name": "actorCtr",
      "outputs": [
        {
          "internalType": "uint256",
          "name": "",
          "type": "uint256"
        }
      ],
      "stateMutability": "view",
      "type": "function",
      "constant": true
    },
    {
      "inputs": [],
      "name": "disLotCtr",
      "outputs": [
        {
          "internalType": "uint256",
          "name": "",
          "type": "uint256"
        }
      ],
      "stateMutability": "view",
      "type": "function",
      "constant": true
    },
    {
      "inputs": [
        {
          "internalType": "uint256",
          "name": "",
          "type": "uint256"
        }
      ],
      "name": "elementCount",
      "outputs": [
        {
          "internalType": "uint256",
          "name": "",
          "type": "uint256"
        }
      ],
      "stateMutability": "view",
      "type": "function",
      "constant": true
    },
    {
      "inputs": [],
      "name": "manLotCtr",
      "outputs": [
        {
          "internalType": "uint256",
          "name": "",
          "type": "uint256"
        }
      ],
      "stateMutability": "view",
      "type": "function",
      "constant": true
    },
    {
      "inputs": [],
      "name": "productCtr",
      "outputs": [
        {
          "internalType": "uint256",
          "name": "",
          "type": "uint256"
        }
      ],
      "stateMutability": "view",
      "type": "function",
      "constant": true
    },
    {
      "inputs": [],
      "name": "retLotCtr",
      "outputs": [
        {
          "internalType": "uint256",
          "name": "",
          "type": "uint256"
        }
      ],
      "stateMutability": "view",
      "type": "function",
      "constant": true
    },
    {
      "inputs": [],
      "name": "supLotCtr",
      "outputs": [
        {
          "internalType": "uint256",
          "name": "",
          "type": "uint256"
        }
      ],
      "stateMutability": "view",
      "type": "function",
      "constant": true
    },
    {
      "inputs": [
        {
          "internalType": "address",
          "name": "",
          "type": "address"
        }
      ],
      "name": "userFiles",
      "outputs": [
        {
          "internalType": "string",
          "name": "",
          "type": "string"
        }
      ],
      "stateMutability": "view",
      "type": "function",
      "constant": true
    },
    {
      "inputs": [
        {
          "internalType": "string",
          "name": "file",
          "type": "string"
        }
      ],
      "name": "setFile",
      "outputs": [],
      "stateMutability": "nonpayable",
      "type": "function"
    },
    {
      "inputs": [
        {
          "internalType": "address",
          "name": "_address",
          "type": "address"
        },
        {
          "internalType": "enum SupplyChain.ROLE[]",
          "name": "_role",
          "type": "uint8[]"
        },
        {
          "internalType": "string",
          "name": "_name",
          "type": "string"
        },
        {
          "internalType": "string",
          "name": "_place",
          "type": "string"
        },
        {
          "internalType": "string",
          "name": "hashFileAcor",
          "type": "string"
        }
      ],
      "name": "addActor",
      "outputs": [],
      "stateMutability": "nonpayable",
      "type": "function"
    },
    {
      "inputs": [
        {
          "internalType": "string",
          "name": "_name",
          "type": "string"
        },
        {
          "internalType": "uint256[]",
          "name": "_ingredient",
          "type": "uint256[]"
        },
        {
          "internalType": "string[]",
          "name": "hashFileProduct",
          "type": "string[]"
        }
      ],
      "name": "addProduct",
      "outputs": [],
      "stateMutability": "nonpayable",
      "type": "function"
    },
    {
      "inputs": [
        {
          "internalType": "uint256",
          "name": "_id",
          "type": "uint256"
        }
      ],
      "name": "deleteProd",
      "outputs": [],
      "stateMutability": "nonpayable",
      "type": "function"
    },
    {
      "inputs": [
        {
          "internalType": "uint256",
          "name": "_prodId",
          "type": "uint256"
        },
        {
          "internalType": "uint256",
          "name": "_size",
          "type": "uint256"
        },
        {
          "internalType": "string",
          "name": "_location",
          "type": "string"
        }
      ],
      "name": "addLot",
      "outputs": [],
      "stateMutability": "nonpayable",
      "type": "function"
    },
    {
      "inputs": [
        {
          "internalType": "uint256[]",
          "name": "_source",
          "type": "uint256[]"
        },
        {
          "internalType": "string",
          "name": "_location",
          "type": "string"
        },
        {
          "internalType": "enum SupplyChain.ROLE",
          "name": "_role",
          "type": "uint8"
        },
        {
          "internalType": "uint256",
          "name": "_duration",
          "type": "uint256"
        },
        {
          "internalType": "string",
          "name": "hashFileAction",
          "type": "string"
        }
      ],
      "name": "baseActions",
      "outputs": [],
      "stateMutability": "nonpayable",
      "type": "function"
    },
    {
      "inputs": [
        {
          "internalType": "uint256",
          "name": "_absoluteId",
          "type": "uint256"
        }
      ],
      "name": "sellLot",
      "outputs": [],
      "stateMutability": "nonpayable",
      "type": "function"
    },
    {
      "inputs": [
        {
          "internalType": "uint256",
          "name": "_absoluteId",
          "type": "uint256"
        }
      ],
      "name": "destruction",
      "outputs": [],
      "stateMutability": "nonpayable",
      "type": "function"
    },
    {
      "inputs": [
        {
          "internalType": "uint256[]",
          "name": "_source",
          "type": "uint256[]"
        },
        {
          "internalType": "uint256",
          "name": "_idProd",
          "type": "uint256"
        },
        {
          "internalType": "uint256",
          "name": "_size",
          "type": "uint256"
        },
        {
          "internalType": "string",
          "name": "_location",
          "type": "string"
        },
        {
          "internalType": "uint256",
          "name": "_duration",
          "type": "uint256"
        },
        {
          "internalType": "string",
          "name": "hashFileAction",
          "type": "string"
        }
      ],
      "name": "transform",
      "outputs": [],
      "stateMutability": "nonpayable",
      "type": "function"
    },
    {
      "inputs": [
        {
          "internalType": "uint256[]",
          "name": "_absoluteIds",
          "type": "uint256[]"
        },
        {
          "internalType": "uint256",
          "name": "productId",
          "type": "uint256"
        },
        {
          "internalType": "string",
          "name": "_location",
          "type": "string"
        },
        {
          "internalType": "uint256",
          "name": "_duration",
          "type": "uint256"
        },
        {
          "internalType": "string",
          "name": "hashFileAction",
          "type": "string"
        }
      ],
      "name": "integrate",
      "outputs": [],
      "stateMutability": "nonpayable",
      "type": "function"
    },
    {
      "inputs": [
        {
          "internalType": "uint256",
          "name": "_absLotId",
          "type": "uint256"
        },
        {
          "internalType": "uint256[]",
          "name": "_sizes",
          "type": "uint256[]"
        },
        {
          "internalType": "string",
          "name": "_location",
          "type": "string"
        },
        {
          "internalType": "uint256",
          "name": "_duration",
          "type": "uint256"
        },
        {
          "internalType": "string",
          "name": "hashFileAction",
          "type": "string"
        }
      ],
      "name": "division",
      "outputs": [],
      "stateMutability": "nonpayable",
      "type": "function"
    },
    {
      "inputs": [
        {
          "internalType": "uint256",
          "name": "_productId",
          "type": "uint256"
        }
      ],
      "name": "getProductIngredient",
      "outputs": [
        {
          "internalType": "uint256[]",
          "name": "",
          "type": "uint256[]"
        }
      ],
      "stateMutability": "view",
      "type": "function",
      "constant": true
    },
    {
      "inputs": [
        {
          "internalType": "uint256",
          "name": "_productId",
          "type": "uint256"
        }
      ],
      "name": "getProductHahs",
      "outputs": [
        {
          "internalType": "string[]",
          "name": "",
          "type": "string[]"
        }
      ],
      "stateMutability": "view",
      "type": "function",
      "constant": true
    },
    {
      "inputs": [
        {
          "internalType": "uint256",
          "name": "_actionId",
          "type": "uint256"
        }
      ],
      "name": "getSourceAction",
      "outputs": [
        {
          "internalType": "uint256[]",
          "name": "",
          "type": "uint256[]"
        }
      ],
      "stateMutability": "view",
      "type": "function",
      "constant": true
    },
    {
      "inputs": [
        {
          "internalType": "uint256",
          "name": "_actionId",
          "type": "uint256"
        }
      ],
      "name": "getSinkAction",
      "outputs": [
        {
          "internalType": "uint256[]",
          "name": "",
          "type": "uint256[]"
        }
      ],
      "stateMutability": "view",
      "type": "function",
      "constant": true
    }
  ],
  "bytecode": "0x608060405234801561001057600080fd5b5060008054600160a060020a03191633179055614134806100326000396000f3fe608060405234801561001057600080fd5b5060043610610223576000357c01000000000000000000000000000000000000000000000000000000009004806388721b0311610137578063b4272ce9116100ca578063df53feef11610099578063df53feef146104ef578063e14e6eec146104f8578063e423c15814610518578063f00f78231461052b578063f0e6187e1461053457600080fd5b8063b4272ce914610477578063b4a99a4e1461049b578063b7b3424e146104c6578063cd7a97e9146104cf57600080fd5b8063a1fdc88511610106578063a1fdc88514610432578063aa9a164514610445578063aaea34aa1461044e578063b0b190721461045757600080fd5b806388721b03146103e657806389b8a13c146103f957806390a2daff1461040c5780639421347d1461041f57600080fd5b806348f2dd97116101ba5780637f004f00116101895780637f004f001461037f57806381a0959f1461039257806383175b441461039b578063841215ef146103c0578063866925b1146103d357600080fd5b806348f2dd97146102e45780635573d8b2146102f75780635afc04781461031a57806373029bdd1461036c57600080fd5b80633ff74d50116101f65780633ff74d501461029057806343abd258146102a3578063459db0bc146102b657806347e1e144146102bf57600080fd5b806317e909b41461022857806321df42d4146102515780632d88728114610266578063341986bf1461027d575b600080fd5b61023b61023636600461368a565b610547565b60405161024891906136a3565b60405180910390f35b61026461025f36600461382d565b6105ac565b005b61026f60055481565b604051908152602001610248565b61026461028b3660046138c9565b610a33565b61026461029e36600461396d565b610e17565b6102646102b136600461368a565b6112d5565b61026f60075481565b6102d26102cd36600461368a565b611308565b60405161024896959493929190613a0c565b6102646102f236600461368a565b6113d0565b61030a61030536600461368a565b611f01565b6040516102489493929190613a53565b61035b61032836600461368a565b600a6020526000908152604090208054600182015460028301546003909301549192909160ff8082169161010090041685565b604051610248959493929190613a9d565b61026461037a366004613aee565b611fb8565b6102d261038d36600461368a565b61299c565b61026f60045481565b6103ae6103a936600461368a565b6129d2565b60405161024896959493929190613b5a565b6102646103ce36600461368a565b612bc2565b6102646103e1366004613be2565b612c7b565b6102d26103f436600461368a565b612dfc565b610264610407366004613cee565b612e32565b6102d261041a36600461368a565b6130fc565b61023b61042d36600461368a565b613132565b61023b61044036600461368a565b613195565b61026f60015481565b61026f60025481565b61046a610465366004613d3e565b6131f8565b6040516102489190613d60565b61048a61048536600461368a565b613292565b604051610248959493929190613d73565b6000546104ae90600160a060020a031681565b604051600160a060020a039091168152602001610248565b61026f60085481565b6104e26104dd36600461368a565b61334f565b6040516102489190613db9565b61026f60035481565b61026f61050636600461368a565b60116020526000908152604090205481565b610264610526366004613e1a565b61343e565b61026f60065481565b610264610542366004613e57565b61345b565b6000818152600f60209081526040918290206003018054835181840281018401909452808452606093928301828280156105a057602002820191906000526020600020905b81548152602001906001019080831161058c575b50505050509050919050565b60408051600180825281830190925260009182918291602080830190803683370190505090506000885167ffffffffffffffff8111156105ee576105ee6136e7565b604051908082528060200260200182016040528015610617578160200160208202803683370190505b50905060005b60055481116107135760005b8a51811015610700578a818151811061064457610644613f4c565b6020026020010151600c6000848152602001908152602001600020600101541480156106a95750600a60008c838151811061068157610681613f4c565b6020026020010151815260200190815260200160002060030160019054906101000a900460ff165b156106ee576000828152600c602052604090205483518490889081106106d1576106d1613f4c565b6020908102919091010152856106e681613f7e565b965050610700565b806106f881613f7e565b915050610629565b508061070b81613f7e565b91505061061d565b5060005b89518110156107b7576000600a60008c848151811061073857610738613f4c565b6020026020010151815260200190815260200160002060030160016101000a81548160ff021916908315150217905550600a60008b838151811061077e5761077e613f4c565b6020026020010151815260200190815260200160002060020154846107a39190613f97565b9350806107af81613f7e565b915050610717565b50600580549060006107c883613f7e565b9091555050600380549060006107dd83613f7e565b9091555050600880549060006107f283613f7e565b91905055506005548260008151811061080d5761080d613f4c565b6020908102919091018101919091526040805160c081018252600554808252600380548386019081528385018e8152606085018a8152608086018f81523360a08801526000958652600c909852959093208451815590516001820155915160028301559251928101929092559151600482019061088a9082614038565b5060a0918201516005919091018054600160a060020a031916600160a060020a039092169190911790556040805191820181526003805480845260208085018d8152858501898152600160608801818152608089018290526000958652600a9094529590932086518155905181860155915160028301555191810180549193909160ff19169083600481111561092257610922613a84565b021790555060809190910151600390910180549115156101000261ff00199092169190911790556040805160e081019091526008548152602081016005815260208082018490526040808301869052426060840152608083018a905260a09092018890526008546000908152600f825291909120825181559082015160018083018054909160ff19909116908360078111156109c0576109c0613a84565b0217905550604082015180516109e0916002840191602090910190613560565b50606082015180516109fc916003840191602090910190613560565b506080820151600482015560a0820151600582015560c08201516006820190610a259082614038565b505050505050505050505050565b6040805160018082528183019092526000918291906020808301908036833701905050905060005b6005548111610b20576000818152600c60209081526040808320600101548352600a909152902060030154610100900460ff168015610adf5750600c60008a600081518110610aac57610aac613f4c565b6020026020010151815260200190815260200160002060010154600c600083815260200190815260200160002060010154145b8015610b0457506000818152600c6020526040902060050154600160a060020a031633145b15610b0e57600192505b80610b1881613f7e565b915050610a5b565b506000600a6000600c60008c600081518110610b3e57610b3e613f4c565b6020026020010151815260200190815260200160002060010154815260200190815260200160002060030160016101000a81548160ff02191690831515021790555060086000815480929190610b9390613f7e565b909155505060058054906000610ba883613f7e565b909155505060038054906000610bbd83613f7e565b919050555060055481600081518110610bd857610bd8613f4c565b6020026020010181815250506040518060a00160405280600354815260200188815260200187815260200160016004811115610c1657610c16613a84565b815260016020918201819052600380546000908152600a84526040908190208551815593850151848401558401516002840155606084015190830180549192909160ff191690836004811115610c6e57610c6e613a84565b0217905550608091820151600391820180549115156101000261ff00199092169190911790556040805160c081018252600554808252835460208084019182528385018e8152606085018e81529785018d81523360a08701526000948552600c9092529490922083518155905160018201559251600284015593519282019290925591519091906004820190610d049082614038565b5060a0919091015160059091018054600160a060020a031916600160a060020a039092169190911790556040805160e081019091526008548152602081016003815260208082018b905260408083018590524260608401526080830188905260a09092018690526008546000908152600f825291909120825181559082015160018083018054909160ff1990911690836007811115610da557610da5613a84565b021790555060408201518051610dc5916002840191602090910190613560565b5060608201518051610de1916003840191602090910190613560565b506080820151600482015560a0820151600582015560c08201516006820190610e0a9082614038565b5050505050505050505050565b6008805460009182610e2883613f7e565b9091555050604080516001808252818301909252600091602080830190803683370190505090506000865167ffffffffffffffff811115610e6b57610e6b6136e7565b604051908082528060200260200182016040528015610e94578160200160208202803683370190505b50905060005b8751811015610edc57878181518110610eb557610eb5613f4c565b602002602001015184610ec89190613f97565b935080610ed481613f7e565b915050610e9a565b506000888152600a6020526040902060020154831115610efb57600080fd5b60005b6005548111610fbe576000818152600c602090815260408083206001908101548452600a90925290912060030154610100900460ff161515148015610f5357506000818152600c602052604090206001015489145b15610fac576000818152600c6020526040902060050154600160a060020a03163314610f7e57600080fd5b6000818152600c6020526040812054845190918591610f9f57610f9f613f4c565b6020026020010181815250505b80610fb681613f7e565b915050610efe565b5060005b87518110156111d65760058054906000610fdb83613f7e565b909155505060038054906000610ff083613f7e565b919050555060055482828151811061100a5761100a613f4c565b6020026020010181815250506040518060c0016040528060055481526020016003548152602001600a60008c815260200190815260200160002060010154815260200189838151811061105f5761105f613f4c565b60209081029190910181015182528181018a9052336040928301526005546000908152600c82528290208351815590830151600182015590820151600282015560608201516003820155608082015160048201906110bd9082614038565b5060a0918201516005919091018054600160a060020a031916600160a060020a03909216919091179055604080519182018152600354825260008b8152600a60209081529082902060010154908301528951908201908a908490811061112557611125613f4c565b602002602001015181526020016001600481111561114557611145613a84565b815260016020918201819052600380546000908152600a84526040908190208551815593850151848401558401516002840155606084015190830180549192909160ff19169083600481111561119d5761119d613a84565b021790555060809190910151600390910180549115156101000261ff0019909216919091179055806111ce81613f7e565b915050610fc2565b506040805160e081018252600854808252600660208084019182528385018790526060840186905242608085015260a084018a905260c084018990526000928352600f905292902081518155915160018084018054939493909160ff199091169083600781111561124957611249613a84565b021790555060408201518051611269916002840191602090910190613560565b5060608201518051611285916003840191602090910190613560565b506080820151600482015560a0820151600582015560c082015160068201906112ae9082614038565b50505060009788525050600a60205250506040909320600301805461ff0019169055505050565b600054600160a060020a031633146112ec57600080fd5b6000908152600960205260409020600201805461ff0019169055565b600c6020526000908152604090208054600182015460028301546003840154600485018054949593949293919261133e90613fb0565b80601f016020809104026020016040519081016040528092919081815260200182805461136a90613fb0565b80156113b75780601f1061138c576101008083540402835291602001916113b7565b820191906000526020600020905b81548152906001019060200180831161139a57829003601f168201915b50505060059093015491925050600160a060020a031686565b60046000828152600a602052604090206003015460ff1660048111156113f8576113f8613a84565b0361140257600080fd5b6000818152600a602052604081206003015460ff16600481111561142857611428613a84565b1061148c5760005b600454811161148a576000818152600b6020526040902060010154829003611478576000818152600b6020526040902060050154600160a060020a0316331461147857600080fd5b8061148281613f7e565b915050611430565b505b60016000828152600a602052604090206003015460ff1660048111156114b4576114b4613a84565b106115185760005b6005548111611516576000818152600c6020526040902060010154829003611504576000818152600c6020526040902060050154600160a060020a0316331461150457600080fd5b8061150e81613f7e565b9150506114bc565b505b60026000828152600a602052604090206003015460ff16600481111561154057611540613a84565b106115a45760005b60065481116115a2576000818152600d6020526040902060010154829003611590576000818152600d6020526040902060050154600160a060020a0316331461159057600080fd5b8061159a81613f7e565b915050611548565b505b60036000828152600a602052604090206003015460ff1660048111156115cc576115cc613a84565b106116305760005b600754811161162e576000818152600e602052604090206001015482900361161c576000818152600d6020526040902060050154600160a060020a0316331461161c57600080fd5b8061162681613f7e565b9150506115d4565b505b60015b6008548111611c20576000818152600f602052604081206001015460ff16600781111561166257611662613a84565b1480611693575060046000828152600f602052604090206001015460ff16600781111561169157611691613a84565b145b806116c3575060036000828152600f602052604090206001015460ff1660078111156116c1576116c1613a84565b145b156117785781600c6000600f60008581526020019081526020016000206003016000815481106116f5576116f5613f4c565b906000526020600020015481526020019081526020016000206001015403611773576000818152600f6020526040812081815560018101805460ff191690559061174260028301826135ab565b6117506003830160006135ab565b6004820160009055600582016000905560068201600061177091906135cc565b50505b611c0e565b60066000828152600f602052604090206001015460ff1660078111156117a0576117a0613a84565b0361192d5781600c6000600f60008581526020019081526020016000206002016000815481106117d2576117d2613f4c565b906000526020600020015481526020019081526020016000206001015403611850576000818152600f6020526040812081815560018101805460ff191690559061181f60028301826135ab565b61182d6003830160006135ab565b6004820160009055600582016000905560068201600061184d91906135cc565b50505b60005b6000828152600f602052604090206003015481116119275782600c6000600f6000868152602001908152602001600020600301848154811061189757611897613f4c565b906000526020600020015481526020019081526020016000206001015403611915576000828152600f6020526040812081815560018101805460ff19169055906118e460028301826135ab565b6118f26003830160006135ab565b6004820160009055600582016000905560068201600061191291906135cc565b50505b8061191f81613f7e565b915050611853565b50611c0e565b60056000828152600f602052604090206001015460ff16600781111561195557611955613a84565b03611adc5781600c6000600f600085815260200190815260200160002060030160008154811061198757611987613f4c565b906000526020600020015481526020019081526020016000206001015403611a05576000818152600f6020526040812081815560018101805460ff19169055906119d460028301826135ab565b6119e26003830160006135ab565b60048201600090556005820160009055600682016000611a0291906135cc565b50505b60005b6000828152600f602052604090206002015481116119275782600c6000600f60008681526020019081526020016000206002018481548110611a4c57611a4c613f4c565b906000526020600020015481526020019081526020016000206001015403611aca576000828152600f6020526040812081815560018101805460ff1916905590611a9960028301826135ab565b611aa76003830160006135ab565b60048201600090556005820160009055600682016000611ac791906135cc565b50505b80611ad481613f7e565b915050611a08565b60016000828152600f602052604090206001015460ff166007811115611b0457611b04613a84565b03611b365781600d6000600f60008581526020019081526020016000206003016000815481106116f5576116f5613f4c565b60026000828152600f602052604090206001015460ff166007811115611b5e57611b5e613a84565b03611c0e5781600e6000600f6000858152602001908152602001600020600301600081548110611b9057611b90613f4c565b906000526020600020015481526020019081526020016000206001015403611c0e576000818152600f6020526040812081815560018101805460ff1916905590611bdd60028301826135ab565b611beb6003830160006135ab565b60048201600090556005820160009055600682016000611c0b91906135cc565b50505b80611c1881613f7e565b915050611633565b506000818152600a602052604081206003015460ff166004811115611c4757611c47613a84565b10611ccc5760005b6004548111611cca576000818152600b6020526040902060010154829003611cb8576000818152600b6020526040812081815560018101829055600281018290556003810182905590611ca560048301826135cc565b506005018054600160a060020a03191690555b80611cc281613f7e565b915050611c4f565b505b60016000828152600a602052604090206003015460ff166004811115611cf457611cf4613a84565b10611d795760005b6005548111611d77576000818152600c6020526040902060010154829003611d65576000818152600c6020526040812081815560018101829055600281018290556003810182905590611d5260048301826135cc565b506005018054600160a060020a03191690555b80611d6f81613f7e565b915050611cfc565b505b60026000828152600a602052604090206003015460ff166004811115611da157611da1613a84565b10611e265760005b6006548111611e24576000818152600d6020526040902060010154829003611e12576000818152600d6020526040812081815560018101829055600281018290556003810182905590611dff60048301826135cc565b506005018054600160a060020a03191690555b80611e1c81613f7e565b915050611da9565b505b60036000828152600a602052604090206003015460ff166004811115611e4e57611e4e613a84565b10611ed35760005b6007548111611ed1576000818152600e6020526040902060010154829003611ebf576000818152600e6020526040812081815560018101829055600281018290556003810182905590611eac60048301826135cc565b506005018054600160a060020a03191690555b80611ec981613f7e565b915050611e56565b505b6000908152600a60205260408120818155600181018290556002810191909155600301805461ffff19169055565b60096020526000908152604090208054600182018054919291611f2390613fb0565b80601f0160208091040260200160405190810160405280929190818152602001828054611f4f90613fb0565b8015611f9c5780601f10611f7157610100808354040283529160200191611f9c565b820191906000526020600020905b815481529060010190602001808311611f7f57829003601f168201915b5050506002909301549192505060ff8082169161010090041684565b826000805b600154811161206f57600081815260106020526040902060010154600160a060020a03163314801561203c5750826003811115611ffc57611ffc613a84565b60008281526010602052604090206001015474010000000000000000000000000000000000000000900460ff16600381111561203a5761203a613a84565b145b80156120535750600054600160a060020a03163314155b1561205d57600191505b8061206781613f7e565b915050611fbd565b508061207a57600080fd5b6008805490600061208a83613f7e565b90915550506040805160018082528183019092526000916020808301908036833701905050905060018660038111156120c5576120c5613a84565b03612411576000600a6000600b60008c6000815181106120e7576120e7613f4c565b6020026020010151815260200190815260200160002060010154815260200190815260200160002060030160009054906101000a900460ff16600481111561213157612131613a84565b1461213b57600080fd5b6005805490600061214b83613f7e565b91905055506005548160008151811061216657612166613f4c565b6020026020010181815250506040518060c001604052806005548152602001600b60008b60008151811061219c5761219c613f4c565b60200260200101518152602001908152602001600020600101548152602001600b60008b6000815181106121d2576121d2613f4c565b60200260200101518152602001908152602001600020600201548152602001600b60008b60008151811061220857612208613f4c565b6020026020010151815260200190815260200160002060030154815260200188815260200133600160a060020a0316815250600c6000600554815260200190815260200160002060008201518160000155602082015181600101556040820151816002015560608201518160030155608082015181600401908161228c9190614038565b5060a08201518160050160006101000a815481600160a060020a030219169083600160a060020a031602179055509050506001600a6000600b60008c6000815181106122da576122da613f4c565b6020026020010151815260200190815260200160002060010154815260200190815260200160002060030160006101000a81548160ff0219169083600481111561232657612326613a84565b02179055506040805160e0810190915260085481526020810160005b815260208082018b905260408083018590524260608401526080830189905260a09092018790526008546000908152600f825291909120825181559082015160018083018054909160ff19909116908360078111156123a3576123a3613a84565b0217905550604082015180516123c3916002840191602090910190613560565b50606082015180516123df916003840191602090910190613560565b506080820151600482015560a0820151600582015560c082015160068201906124089082614038565b50905050612992565b600286600381111561242557612425613a84565b036126a6576001600a6000600c60008c60008151811061244757612447613f4c565b6020026020010151815260200190815260200160002060010154815260200190815260200160002060030160009054906101000a900460ff16600481111561249157612491613a84565b1461249b57600080fd5b600680549060006124ab83613f7e565b9190505550600654816000815181106124c6576124c6613f4c565b6020026020010181815250506040518060c001604052806006548152602001600c60008b6000815181106124fc576124fc613f4c565b60200260200101518152602001908152602001600020600101548152602001600c60008b60008151811061253257612532613f4c565b60200260200101518152602001908152602001600020600201548152602001600c60008b60008151811061256857612568613f4c565b6020026020010151815260200190815260200160002060030154815260200188815260200133600160a060020a0316815250600d600060065481526020019081526020016000206000820151816000015560208201518160010155604082015181600201556060820151816003015560808201518160040190816125ec9190614038565b5060a08201518160050160006101000a815481600160a060020a030219169083600160a060020a031602179055509050506002600a6000600c60008c60008151811061263a5761263a613f4c565b6020026020010151815260200190815260200160002060010154815260200190815260200160002060030160006101000a81548160ff0219169083600481111561268657612686613a84565b02179055506040805160e081019091526008548152602081016001612342565b60038660038111156126ba576126ba613a84565b03612992576002600a6000600d60008c6000815181106126dc576126dc613f4c565b6020026020010151815260200190815260200160002060010154815260200190815260200160002060030160009054906101000a900460ff16600481111561272657612726613a84565b1461273057600080fd5b6007805490600061274083613f7e565b91905055506007548160008151811061275b5761275b613f4c565b6020026020010181815250506040518060c001604052806007548152602001600d60008b60008151811061279157612791613f4c565b60200260200101518152602001908152602001600020600101548152602001600d60008b6000815181106127c7576127c7613f4c565b60200260200101518152602001908152602001600020600201548152602001600d60008b6000815181106127fd576127fd613f4c565b6020026020010151815260200190815260200160002060030154815260200188815260200133600160a060020a0316815250600e600060075481526020019081526020016000206000820151816000015560208201518160010155604082015181600201556060820151816003015560808201518160040190816128819190614038565b5060a08201518160050160006101000a815481600160a060020a030219169083600160a060020a031602179055509050506003600a6000600d60008c6000815181106128cf576128cf613f4c565b6020026020010151815260200190815260200160002060010154815260200190815260200160002060030160006101000a81548160ff0219169083600481111561291b5761291b613a84565b02179055506040805160e081018252600854808252600260208084019182528385018d90526060840186905242608085015260a084018a905260c084018990526000928352600f905292902081518155915160018084018054939493909160ff1990911690836007811115610da557610da5613a84565b5050505050505050565b600e6020526000908152604090208054600182015460028301546003840154600485018054949593949293919261133e90613fb0565b6010602052600090815260409020805460018201546002830180549293600160a060020a038316937401000000000000000000000000000000000000000090930460ff1692909190612a2390613fb0565b80601f0160208091040260200160405190810160405280929190818152602001828054612a4f90613fb0565b8015612a9c5780601f10612a7157610100808354040283529160200191612a9c565b820191906000526020600020905b815481529060010190602001808311612a7f57829003601f168201915b505050505090806003018054612ab190613fb0565b80601f0160208091040260200160405190810160405280929190818152602001828054612add90613fb0565b8015612b2a5780601f10612aff57610100808354040283529160200191612b2a565b820191906000526020600020905b815481529060010190602001808311612b0d57829003601f168201915b505050505090806004018054612b3f90613fb0565b80601f0160208091040260200160405190810160405280929190818152602001828054612b6b90613fb0565b8015612bb85780601f10612b8d57610100808354040283529160200191612bb8565b820191906000526020600020905b815481529060010190602001808311612b9b57829003601f168201915b5050505050905086565b6000805b6001548111612c5157600081815260106020526040902060010154600160a060020a031633148015612c355750600360008281526010602052604090206001015474010000000000000000000000000000000000000000900460ff166003811115612c3357612c33613a84565b145b15612c3f57600191505b80612c4981613f7e565b915050612bc6565b5080612c5c57600080fd5b506000908152600a60205260409020600301805460ff19166004179055565b600054600160a060020a03163314612c9257600080fd5b60005b8451811015612df45760018054906000612cae83613f7e565b91905055506040518060c00160405280600154815260200187600160a060020a03168152602001868381518110612ce757612ce7613f4c565b60200260200101516003811115612d0057612d00613a84565b81526020808201879052604080830187905260609092018590526001805460009081526010835283902084518155918401519082018054600160a060020a03909216600160a060020a0319831681178255938501519293909174ffffffffffffffffffffffffffffffffffffffffff19161774010000000000000000000000000000000000000000836003811115612d9a57612d9a613a84565b021790555060608201516002820190612db39082614038565b5060808201516003820190612dc89082614038565b5060a08201516004820190612ddd9082614038565b509050508080612dec90613f7e565b915050612c95565b505050505050565b600b6020526000908152604090208054600182015460028301546003840154600485018054949593949293919261133e90613fb0565b60038054906000612e4283613f7e565b909155505060048054906000612e5783613f7e565b909155505060088054906000612e6c83613f7e565b90915550506040805160a081018252600380548083526020808401888152848601888152600060608701818152600160808901819052958252600a909452969096208551815590518184015594516002860155519184018054939493909160ff1990911690836004811115612ee357612ee3613a84565b0217905550608091820151600391820180549115156101000261ff00199092169190911790556040805160c08101825260048054808352845460208085019182528486018b8152606086018b81529886018a81523360a08801526000948552600b9092529590922084518155905160018201559351600285015594519383019390935592519091820190612f779082614038565b5060a0919091015160059091018054600160a060020a031916600160a060020a0390921691909117905560408051600180825281830190925260009160208083019080368337505060408051600180825281830190925292935060009291506020808301908036833701905050905060045481600081518110612ffc57612ffc613f4c565b6020026020010181815250506040518060e00160405280600854815260200160078081111561302d5761302d613a84565b8152602080820185905260408083018590524260608401526000608084018190528151808401835281815260a0909401939093526008548352600f8252909120825181559082015160018083018054909160ff199091169083600781111561309757613097613a84565b0217905550604082015180516130b7916002840191602090910190613560565b50606082015180516130d3916003840191602090910190613560565b506080820151600482015560a0820151600582015560c082015160068201906129929082614038565b600d6020526000908152604090208054600182015460028301546003840154600485018054949593949293919261133e90613fb0565b6000818152600960209081526040918290206003018054835181840281018401909452808452606093928301828280156105a0576020028201919060005260206000209081548152602001906001019080831161058c5750505050509050919050565b6000818152600f60209081526040918290206002018054835181840281018401909452808452606093928301828280156105a0576020028201919060005260206000209081548152602001906001019080831161058c5750505050509050919050565b6012602052600090815260409020805461321190613fb0565b80601f016020809104026020016040519081016040528092919081815260200182805461323d90613fb0565b801561328a5780601f1061325f5761010080835404028352916020019161328a565b820191906000526020600020905b81548152906001019060200180831161326d57829003601f168201915b505050505081565b600f6020526000908152604090208054600182015460048301546005840154600685018054949560ff90941694929391926132cc90613fb0565b80601f01602080910402602001604051908101604052809291908181526020018280546132f890613fb0565b80156133455780601f1061331a57610100808354040283529160200191613345565b820191906000526020600020905b81548152906001019060200180831161332857829003601f168201915b5050505050905085565b606060096000838152602001908152602001600020600401805480602002602001604051908101604052809291908181526020016000905b828210156134335783829060005260206000200180546133a690613fb0565b80601f01602080910402602001604051908101604052809291908181526020018280546133d290613fb0565b801561341f5780601f106133f45761010080835404028352916020019161341f565b820191906000526020600020905b81548152906001019060200180831161340257829003601f168201915b505050505081526020019060010190613387565b505050509050919050565b3360009081526012602052604090206134578282614038565b5050565b600054600160a060020a0316331461347257600080fd5b6002805490600061348283613f7e565b9091555050815160019015613495575060005b6040805160c0810182526002548082526020808301888152851515848601526001606085018190526080850189905260a085018890526000938452600990925293909120825181559251919291908201906134f09082614038565b506040820151600282018054606085015115156101000261ff00199315159390931661ffff19909116179190911790556080820151805161353b916003840191602090910190613560565b5060a08201518051613557916004840191602090910190613606565b50505050505050565b82805482825590600052602060002090810192821561359b579160200282015b8281111561359b578251825591602001919060010190613580565b506135a7929150613658565b5090565b50805460008255906000526020600020908101906135c99190613658565b50565b5080546135d890613fb0565b6000825580601f106135e8575050565b601f0160209004906000526020600020908101906135c99190613658565b82805482825590600052602060002090810192821561364c579160200282015b8281111561364c578251829061363c9082614038565b5091602001919060010190613626565b506135a792915061366d565b5b808211156135a75760008155600101613659565b808211156135a757600061368182826135cc565b5060010161366d565b60006020828403121561369c57600080fd5b5035919050565b6020808252825182820181905260009190848201906040850190845b818110156136db578351835292840192918401916001016136bf565b50909695505050505050565b60e060020a634e487b7102600052604160045260246000fd5b604051601f8201601f1916810167ffffffffffffffff81118282101715613729576137296136e7565b604052919050565b600067ffffffffffffffff82111561374b5761374b6136e7565b5060209081020190565b600082601f83011261376657600080fd5b8135602061377b61377683613731565b613700565b8281529181028401810191818101908684111561379757600080fd5b8286015b848110156137b2578035835291830191830161379b565b509695505050505050565b600082601f8301126137ce57600080fd5b813567ffffffffffffffff8111156137e8576137e86136e7565b6137fb601f8201601f1916602001613700565b81815284602083860101111561381057600080fd5b816020850160208301376000918101602001919091529392505050565b600080600080600060a0868803121561384557600080fd5b853567ffffffffffffffff8082111561385d57600080fd5b61386989838a01613755565b965060208801359550604088013591508082111561388657600080fd5b61389289838a016137bd565b94506060880135935060808801359150808211156138af57600080fd5b506138bc888289016137bd565b9150509295509295909350565b60008060008060008060c087890312156138e257600080fd5b863567ffffffffffffffff808211156138fa57600080fd5b6139068a838b01613755565b97506020890135965060408901359550606089013591508082111561392a57600080fd5b6139368a838b016137bd565b94506080890135935060a089013591508082111561395357600080fd5b5061396089828a016137bd565b9150509295509295509295565b600080600080600060a0868803121561398557600080fd5b85359450602086013567ffffffffffffffff808211156139a457600080fd5b6139b089838a01613755565b9550604088013591508082111561388657600080fd5b6000815180845260005b818110156139ec576020818501810151868301820152016139d0565b506000602082860101526020601f19601f83011685010191505092915050565b86815285602082015284604082015283606082015260c060808201526000613a3760c08301856139c6565b9050600160a060020a03831660a0830152979650505050505050565b848152608060208201526000613a6c60808301866139c6565b93151560408301525090151560609091015292915050565b60e060020a634e487b7102600052602160045260246000fd5b858152602081018590526040810184905260a0810160058410613ac257613ac2613a84565b83606083015282151560808301529695505050505050565b803560048110613ae957600080fd5b919050565b600080600080600060a08688031215613b0657600080fd5b853567ffffffffffffffff80821115613b1e57600080fd5b613b2a89838a01613755565b96506020880135915080821115613b4057600080fd5b613b4c89838a016137bd565b955061389260408901613ada565b868152600160a060020a0386166020820152600060048610613b7e57613b7e613a84565b85604083015260c06060830152613b9860c08301866139c6565b8281036080840152613baa81866139c6565b905082810360a0840152613bbe81856139c6565b9998505050505050505050565b8035600160a060020a0381168114613ae957600080fd5b600080600080600060a08688031215613bfa57600080fd5b613c0386613bcb565b945060208087013567ffffffffffffffff80821115613c2157600080fd5b818901915089601f830112613c3557600080fd5b8135613c4361377682613731565b8181529084028301840190848101908c831115613c5f57600080fd5b938501935b82851015613c8457613c7585613ada565b82529385019390850190613c64565b985050506040890135925080831115613c9c57600080fd5b613ca88a848b016137bd565b95506060890135925080831115613cbe57600080fd5b613cca8a848b016137bd565b94506080890135925080831115613ce057600080fd5b50506138bc888289016137bd565b600080600060608486031215613d0357600080fd5b8335925060208401359150604084013567ffffffffffffffff811115613d2857600080fd5b613d34868287016137bd565b9150509250925092565b600060208284031215613d5057600080fd5b613d5982613bcb565b9392505050565b602081526000613d5960208301846139c6565b858152600060088610613d8857613d88613a84565b85602083015284604083015283606083015260a06080830152613dae60a08301846139c6565b979650505050505050565b600060208083018184528085518083526040860191506040848202870101925083870160005b82811015613e0d57603f19888603018452613dfb8583516139c6565b94509285019290850190600101613ddf565b5092979650505050505050565b600060208284031215613e2c57600080fd5b813567ffffffffffffffff811115613e4357600080fd5b613e4f848285016137bd565b949350505050565b600080600060608486031215613e6c57600080fd5b833567ffffffffffffffff80821115613e8457600080fd5b613e90878388016137bd565b9450602091508186013581811115613ea757600080fd5b613eb388828901613755565b945050604086013581811115613ec857600080fd5b8601601f81018813613ed957600080fd5b8035613ee761377682613731565b8181529084028201840190848101908a831115613f0357600080fd5b8584015b83811015613f3b57803586811115613f1f5760008081fd5b613f2d8d89838901016137bd565b845250918601918601613f07565b508096505050505050509250925092565b60e060020a634e487b7102600052603260045260246000fd5b60e060020a634e487b7102600052601160045260246000fd5b600060018201613f9057613f90613f65565b5060010190565b80820180821115613faa57613faa613f65565b92915050565b600281046001821680613fc457607f821691505b602082108103613fe75760e060020a634e487b7102600052602260045260246000fd5b50919050565b601f821115614033576000818152602081206020601f860104810160208610156140145750805b6020601f860104820191505b81811015612df457828155600101614020565b505050565b815167ffffffffffffffff811115614052576140526136e7565b614066816140608454613fb0565b84613fed565b602080601f83116001811461409f57600084156140835750858301515b60028086026008870290910a6000190419821617865550612df4565b600085815260208120601f198616915b828110156140ce578886015182559484019460019091019084016140af565b50858210156140ee57878501516008601f88160260020a60001904191681555b505050505060020260010190555056fea2646970667358221220bb724fe5e8a4e4902a85317296e3c94e027453f03165143758b0cd907348d4e064736f6c63430008130033",
  "immutableReferences": {},
  "source": "// SPDX-License-Identifier: MIT\r\npragma solidity >=0.8.2 <0.9.0;\r\n\r\ncontract SupplyChain{\r\n    // Smart Contract owner will be the person who deploys the contract only he can authorize various roles Supplier, Manufacturer, Distributor, Retailer\r\n    address public Owner;\r\n\r\n    uint256 public actorCtr;\r\n    uint256 public productCtr;\r\n    uint256 public absoluteCtr;\r\n    uint256 public supLotCtr;\r\n    uint256 public manLotCtr;\r\n    uint256 public disLotCtr;\r\n    uint256 public retLotCtr;\r\n    uint256 public actionCtr;\r\n\r\n    // note this constructor will be called when smart contract will be deployed on blockchain\r\n    constructor() {\r\n        Owner = msg.sender;\r\n    }\r\n\r\n    // modifier to make sure only the owner is using the function\r\n    modifier onlyByOwner() {\r\n        require(msg.sender === Owner);\r\n        _;\r\n    }\r\n\r\n    modifier correctActor(ROLE _role){\r\n        bool cond=false;\r\n        for (uint256 i=0; i<=actorCtr; i++) {\r\n            if((Actors[i].addr === msg.sender) && (Actors[i].role === _role) && (msg.sender != Owner)) cond=true;\r\n        }\r\n        require(cond);\r\n        _;\r\n    }\r\n\r\n    // stages of a lot in supply chain\r\n    enum STAGE {\r\n        Supply,\r\n        Manufacturing,\r\n        Distribution,\r\n        Retail,\r\n        Sold\r\n    }\r\n\r\n    // roles for actor\r\n    enum ROLE {\r\n        Supplier,\r\n        Manufacturer,\r\n        Distributor,\r\n        Retailer\r\n    }\r\n\r\n    // all possible action\r\n    enum ACTION_TYPE {\r\n        Manufacture,\r\n        Distribution,\r\n        Retail,\r\n        Tranformation,\r\n        Alteration,\r\n        Integration,\r\n        Division,\r\n        Creation\r\n    }\r\n\r\n    struct product {\r\n        uint256 id;\r\n        string name;\r\n        bool simple;\r\n        bool active;\r\n        uint256[] ingredient;\r\n        string[] hashFileProduct;\r\n    }\r\n\r\n    struct lot{\r\n        uint256 id; // unique lot id\r\n        uint256 absolute_id; // id for that lot in all the supply-chain\r\n        uint256 id_product; // lot of this product\r\n        uint256 size; // size in kg of the lot\r\n        string location; // location of the lot\r\n        address actor; // id of the actor for this particular lot\r\n    }\r\n\r\n    struct absolute_lot{\r\n        uint256 id; // unique lot id\r\n        uint256 id_product; // lot of this product\r\n        uint256 size;\r\n        STAGE stage; // current lot stage\r\n        bool active; //if it's active it means it's still the same lot\r\n    }\r\n\r\n    struct action{\r\n        uint256 id;\r\n        ACTION_TYPE actionType;\r\n        uint256[] source;\r\n        uint256[] sink;\r\n        uint256 timestamp;\r\n        uint256 duration;\r\n        string hashFileAction;\r\n    }\r\n\r\n    struct actor {\r\n        uint256 id;\r\n        address addr;\r\n        ROLE role;\r\n        string name; \r\n        string place;\r\n        string hashFileActor; \r\n    }\r\n\r\n    mapping(uint256 => product) public ProductStock;\r\n    mapping(uint256 => absolute_lot) public LotStock;\r\n    mapping(uint256 => lot) public SupLotStock;\r\n    mapping(uint256 => lot) public ManLotStock;\r\n    mapping(uint256 => lot) public DisLotStock;\r\n    mapping(uint256 => lot) public RetLotStock;\r\n    mapping(uint256 => action) public Actions;\r\n    mapping(uint256 => actor) public Actors;\r\n    mapping(uint => uint) public elementCount;\r\n    mapping (address => string) public userFiles;\r\n\r\n    function setFile(string memory file) external {\r\n        userFiles[msg.sender] = file;\r\n    }\r\n\r\n    function addActor(address _address, ROLE[] memory _role, string memory _name, string memory _place, string memory hashFileAcor) public onlyByOwner() {\r\n        for(uint256 i=0; i<_role.length; i++){\r\n            actorCtr++;\r\n            Actors[actorCtr] = actor(actorCtr, _address, _role[i], _name, _place, hashFileAcor);\r\n        }\r\n    }\r\n\r\n    function addProduct(string memory _name, uint256[] memory _ingredient, string[] memory hashFileProduct) public onlyByOwner() {\r\n        productCtr++;\r\n        bool simple = true;\r\n        if (_ingredient.length != 0) simple = false;\r\n        ProductStock[productCtr] = product(productCtr, _name, simple, true, _ingredient, hashFileProduct);\r\n    }\r\n\r\n    function deleteProd(uint256 _id) public onlyByOwner() {\r\n        ProductStock[_id].active=false;\r\n    } \r\n\r\n    function addLot(uint256 _prodId, uint256 _size, string memory _location) public {\r\n        absoluteCtr++;\r\n        supLotCtr++;\r\n        actionCtr++;\r\n        LotStock[absoluteCtr] = absolute_lot(absoluteCtr, _prodId, _size, STAGE.Supply, true);\r\n        SupLotStock[supLotCtr] = lot(supLotCtr, absoluteCtr, _prodId, _size, _location, msg.sender);\r\n        uint256[] memory source = new uint[](1);\r\n        uint256[] memory sink = new uint[](1);\r\n        sink[0] = supLotCtr;\r\n        Actions[actionCtr] = action(actionCtr, ACTION_TYPE.Creation, source, sink, block.timestamp, 0, \"\");\r\n    }\r\n\r\n    function baseActions(uint256[] memory _source, string memory _location, ROLE _role, uint256 _duration, string memory hashFileAction) public correctActor(_role) {\r\n        actionCtr++;\r\n        uint256[] memory sink = new uint[](1);\r\n        if (_role === ROLE.Manufacturer){\r\n            require(LotStock[SupLotStock[_source[0]].absolute_id].stage === STAGE.Supply);\r\n            manLotCtr++;\r\n            sink[0] = manLotCtr;\r\n            ManLotStock[manLotCtr] = lot(manLotCtr, SupLotStock[_source[0]].absolute_id, SupLotStock[_source[0]].id_product, SupLotStock[_source[0]].size, _location, msg.sender);\r\n            LotStock[SupLotStock[_source[0]].absolute_id].stage = STAGE.Manufacturing;\r\n            Actions[actionCtr] = action(actionCtr, ACTION_TYPE.Manufacture, _source, sink, block.timestamp, _duration, hashFileAction);\r\n        } else if (_role === ROLE.Distributor){\r\n            require(LotStock[ManLotStock[_source[0]].absolute_id].stage === STAGE.Manufacturing);\r\n            disLotCtr++;\r\n            sink[0] = disLotCtr;\r\n            DisLotStock[disLotCtr] = lot(disLotCtr, ManLotStock[_source[0]].absolute_id, ManLotStock[_source[0]].id_product, ManLotStock[_source[0]].size, _location, msg.sender);\r\n            LotStock[ManLotStock[_source[0]].absolute_id].stage = STAGE.Distribution;\r\n            Actions[actionCtr] = action(actionCtr, ACTION_TYPE.Distribution, _source, sink, block.timestamp, _duration, hashFileAction);\r\n        } else if (_role === ROLE.Retailer){\r\n            require(LotStock[DisLotStock[_source[0]].absolute_id].stage === STAGE.Distribution);\r\n            retLotCtr++;\r\n            sink[0] = retLotCtr;\r\n            RetLotStock[retLotCtr] = lot(retLotCtr, DisLotStock[_source[0]].absolute_id, DisLotStock[_source[0]].id_product, DisLotStock[_source[0]].size, _location, msg.sender);\r\n            LotStock[DisLotStock[_source[0]].absolute_id].stage = STAGE.Retail;\r\n            Actions[actionCtr] = action(actionCtr, ACTION_TYPE.Retail, _source, sink, block.timestamp, _duration, hashFileAction);\r\n        }\r\n    }\r\n\r\n    function sellLot(uint256 _absoluteId) public {\r\n        bool cond=false;\r\n        for (uint256 i=0; i<=actorCtr; i++) {\r\n            if((Actors[i].addr === msg.sender) && (Actors[i].role === ROLE.Retailer)) cond=true;\r\n        }  \r\n        require(cond);\r\n        LotStock[_absoluteId].stage = STAGE.Sold;\r\n    }\r\n\r\n    function destruction(uint256 _absoluteId) public {\r\n        require(LotStock[_absoluteId].stage != STAGE.Sold);\r\n        if (LotStock[_absoluteId].stage >= STAGE.Supply){\r\n            for (uint256 i=0; i<=supLotCtr; i++) {\r\n                if (SupLotStock[i].absolute_id === _absoluteId) require(SupLotStock[i].actor===msg.sender);\r\n            }\r\n        }\r\n        if (LotStock[_absoluteId].stage >= STAGE.Manufacturing) {\r\n            for (uint256 i=0; i<=manLotCtr; i++) {\r\n                if (ManLotStock[i].absolute_id === _absoluteId) require(ManLotStock[i].actor===msg.sender);\r\n            }\r\n        }\r\n        if (LotStock[_absoluteId].stage >= STAGE.Distribution){\r\n            for (uint256 i=0; i<=disLotCtr; i++) {\r\n                if (DisLotStock[i].absolute_id === _absoluteId) require(DisLotStock[i].actor===msg.sender);\r\n            }\r\n        }\r\n        if (LotStock[_absoluteId].stage >= STAGE.Retail){\r\n            for (uint256 i=0; i<=retLotCtr; i++) {\r\n                if (RetLotStock[i].absolute_id === _absoluteId) require(DisLotStock[i].actor===msg.sender);\r\n            }\r\n        }\r\n        for (uint256 i=1; i<=actionCtr; i++){\r\n            if ((Actions[i].actionType === ACTION_TYPE.Manufacture) || (Actions[i].actionType === ACTION_TYPE.Alteration) || (Actions[i].actionType === ACTION_TYPE.Tranformation)){\r\n                if (ManLotStock[Actions[i].sink[0]].absolute_id === _absoluteId) delete Actions[i];\r\n            } \r\n            else if (Actions[i].actionType === ACTION_TYPE.Division){\r\n                if (ManLotStock[Actions[i].source[0]].absolute_id === _absoluteId) delete Actions[i];\r\n                for (uint256 j=0; j<=Actions[i].sink.length; j++) {\r\n                    if (ManLotStock[Actions[i].sink[j]].absolute_id === _absoluteId) delete Actions[i];\r\n                }\r\n            } \r\n            else if (Actions[i].actionType === ACTION_TYPE.Integration){\r\n                if (ManLotStock[Actions[i].sink[0]].absolute_id === _absoluteId) delete Actions[i];\r\n                for (uint256 j=0; j<=Actions[i].source.length; j++) {\r\n                    if (ManLotStock[Actions[i].source[j]].absolute_id === _absoluteId) delete Actions[i];\r\n                }\r\n            } \r\n            else if (Actions[i].actionType === ACTION_TYPE.Distribution) {\r\n                if (DisLotStock[Actions[i].sink[0]].absolute_id === _absoluteId) delete Actions[i];\r\n            }\r\n            else if (Actions[i].actionType === ACTION_TYPE.Retail){\r\n                if (RetLotStock[Actions[i].sink[0]].absolute_id === _absoluteId) delete Actions[i];\r\n            }\r\n        }\r\n        if (LotStock[_absoluteId].stage >= STAGE.Supply){\r\n            for (uint256 i=0; i<=supLotCtr; i++) {\r\n                if (SupLotStock[i].absolute_id === _absoluteId) delete SupLotStock[i];\r\n            }\r\n        }\r\n        if (LotStock[_absoluteId].stage >= STAGE.Manufacturing) {\r\n            for (uint256 i=0; i<=manLotCtr; i++) {\r\n                if (ManLotStock[i].absolute_id === _absoluteId) delete ManLotStock[i];\r\n            }\r\n        }\r\n        if (LotStock[_absoluteId].stage >= STAGE.Distribution){\r\n            for (uint256 i=0; i<=disLotCtr; i++) {\r\n                if (DisLotStock[i].absolute_id === _absoluteId) delete DisLotStock[i];\r\n            }\r\n        }\r\n        if (LotStock[_absoluteId].stage >= STAGE.Retail){\r\n            for (uint256 i=0; i<=retLotCtr; i++) {\r\n                if (RetLotStock[i].absolute_id === _absoluteId) delete RetLotStock[i];\r\n            }\r\n        }\r\n        delete LotStock[_absoluteId];\r\n    }\r\n\r\n    function transform(uint256[] memory _source, uint256 _idProd, uint256 _size, string memory _location, uint256 _duration, string memory hashFileAction) public {\r\n        bool cond=false;\r\n        uint256[] memory sink = new uint256[](1);\r\n        for(uint256 i=0; i<=manLotCtr; i++){\r\n            if((LotStock[ManLotStock[i].absolute_id].active) && (ManLotStock[i].absolute_id === ManLotStock[_source[0]].absolute_id) && (ManLotStock[i].actor === msg.sender)){\r\n                cond=true;\r\n            }\r\n        }\r\n        LotStock[ManLotStock[_source[0]].absolute_id].active=false;\r\n        actionCtr++;\r\n        manLotCtr++;\r\n        absoluteCtr++;\r\n        sink[0] = manLotCtr;\r\n        LotStock[absoluteCtr] = absolute_lot(absoluteCtr, _idProd, _size, STAGE.Manufacturing, true);\r\n        ManLotStock[manLotCtr] = lot(manLotCtr, absoluteCtr, _idProd, _size, _location, msg.sender);\r\n        Actions[actionCtr] = action(actionCtr, ACTION_TYPE.Tranformation, _source, sink, block.timestamp, _duration, hashFileAction);\r\n    }\r\n\r\n    function integrate(uint256[] memory _absoluteIds, uint256 productId, string memory _location, uint256 _duration, string memory hashFileAction) public {\r\n        uint256 count=0;\r\n        uint256 size = 0;\r\n        uint256[] memory sink = new uint256[](1);\r\n        uint256[] memory source = new uint256[](_absoluteIds.length);\r\n\r\n        for(uint256 i=0; i<=manLotCtr; i++){\r\n            for (uint j=0; j < _absoluteIds.length; j++) {\r\n                if ((ManLotStock[i].absolute_id === _absoluteIds[j]) && (LotStock[_absoluteIds[j]].active)) {\r\n                    source[count] = ManLotStock[i].id;\r\n                    count++;\r\n                    break;\r\n                }\r\n            }\r\n        }\r\n\r\n        for (uint256 i = 0; i < _absoluteIds.length; i++) {\r\n            LotStock[_absoluteIds[i]].active = false;\r\n            size += LotStock[_absoluteIds[i]].size;  \r\n        }\r\n        \r\n        manLotCtr++;\r\n        absoluteCtr++;\r\n        actionCtr++;\r\n        sink[0] = manLotCtr;\r\n        ManLotStock[manLotCtr] = lot(manLotCtr, absoluteCtr, productId, size, _location, msg.sender);\r\n        LotStock[absoluteCtr] = absolute_lot(absoluteCtr, productId, size, STAGE.Manufacturing, true);\r\n        \r\n        Actions[actionCtr] = action(actionCtr, ACTION_TYPE.Integration, source, sink, block.timestamp, _duration, hashFileAction);\r\n    }\r\n\r\n    function division(uint256 _absLotId, uint256[] memory _sizes, string memory _location, uint256 _duration, string memory hashFileAction) public {\r\n        uint256 sum;\r\n        actionCtr++;\r\n        uint256[] memory source = new uint256[](1);\r\n        uint256[] memory sink = new uint256[](_sizes.length);\r\n        for (uint256 i=0; i<_sizes.length; i++){\r\n            sum += _sizes[i];\r\n        }   \r\n        require(sum <= LotStock[_absLotId].size);\r\n        for (uint256 i=0; i<=manLotCtr; i++){\r\n            if((LotStock[ManLotStock[i].absolute_id].active===true) && (ManLotStock[i].absolute_id === _absLotId)) {\r\n                require(ManLotStock[i].actor===msg.sender);\r\n                source[0] = ManLotStock[i].id;\r\n            }\r\n        }\r\n        for (uint256 i=0; i<_sizes.length; i++){\r\n            manLotCtr++;\r\n            absoluteCtr++;\r\n            sink[i]=manLotCtr;\r\n            ManLotStock[manLotCtr] = lot(manLotCtr, absoluteCtr, LotStock[_absLotId].id_product, _sizes[i], _location, msg.sender);\r\n            LotStock[absoluteCtr] = absolute_lot(absoluteCtr, LotStock[_absLotId].id_product, _sizes[i], STAGE.Manufacturing, true);\r\n        }  \r\n        Actions[actionCtr] = action(actionCtr, ACTION_TYPE.Division, source, sink, block.timestamp, _duration, hashFileAction);\r\n        LotStock[_absLotId].active = false;\r\n    }\r\n\r\n    function getProductIngredient(uint256 _productId) public view returns (uint256[] memory) {\r\n        return ProductStock[_productId].ingredient;\r\n    }\r\n\r\n    function getProductHahs(uint256 _productId) public view returns (string[] memory) {\r\n        return ProductStock[_productId].hashFileProduct;\r\n    }\r\n\r\n    function getSourceAction(uint256 _actionId) public view returns (uint256[] memory){\r\n        return Actions[_actionId].source;\r\n    }\r\n\r\n    function getSinkAction(uint256 _actionId) public view returns (uint256[] memory){\r\n        return Actions[_actionId].sink;\r\n    }\r\n\r\n    function checkArray(uint256[] memory array1, uint256[] memory array2) internal returns(bool){\r\n        for (uint i = 0; i < array1.length; i++) {\r\n            elementCount[array1[i]]=0;\r\n        }\r\n        for (uint i = 0; i < array2.length; i++) {\r\n            elementCount[array2[i]]=0;\r\n        }\r\n        if (array1.length != array2.length) {\r\n            return false;\r\n        }\r\n        for (uint i = 0; i < array1.length; i++) {\r\n            elementCount[array1[i]]++;\r\n        }\r\n        for (uint i = 0; i < array2.length; i++) {\r\n            elementCount[array2[i]]--;\r\n        }\r\n        for (uint i = 0; i < array1.length; i++) {\r\n            if (elementCount[array1[i]] != 0) {\r\n                return false;\r\n            }\r\n        }\r\n        return true;\r\n    }\r\n}",
  "sourcePath": "C:\\Users\\antoi\\OneDrive\\Desktop\\Brescia\\DebugApp\\SupplyChain_AgriFood\\contracts\\SupplyChain.sol",
  "compiler": {
    "name": "solc",
    "version": "0.8.19+commit.7dd6d404.Emscripten.clang"
  },
  "schemaVersion": "3.4.16",
  "updatedAt": "2025-06-18T09:07:22.755Z",
  "networkType": "ethereum",
  "devdoc": {
    "kind": "dev",
    "methods": {},
    "version": 1
  },
  "userdoc": {
    "kind": "user",
    "methods": {},
    "version": 1
  }
}