{
  "contractName": "SupplyChain",
  "abi": [
    {
      "inputs": [],
      "stateMutability": "nonpayable",
      "type": "constructor"
    },
    {
      "inputs": [
        {
          "internalType": "uint256",
          "name": "",
          "type": "uint256"
        }
      ],
      "name": "Actions",
      "outputs": [
        {
          "internalType": "uint256",
          "name": "id",
          "type": "uint256"
        },
        {
          "internalType": "enum SupplyChain.ACTION_TYPE",
          "name": "actionType",
          "type": "uint8"
        },
        {
          "internalType": "uint256",
          "name": "timestamp",
          "type": "uint256"
        },
        {
          "internalType": "uint256",
          "name": "duration",
          "type": "uint256"
        },
        {
          "internalType": "string",
          "name": "hashFileAction",
          "type": "string"
        }
      ],
      "stateMutability": "view",
      "type": "function",
      "constant": true
    },
    {
      "inputs": [
        {
          "internalType": "uint256",
          "name": "",
          "type": "uint256"
        }
      ],
      "name": "Actors",
      "outputs": [
        {
          "internalType": "uint256",
          "name": "id",
          "type": "uint256"
        },
        {
          "internalType": "address",
          "name": "addr",
          "type": "address"
        },
        {
          "internalType": "enum SupplyChain.ROLE",
          "name": "role",
          "type": "uint8"
        },
        {
          "internalType": "string",
          "name": "name",
          "type": "string"
        },
        {
          "internalType": "string",
          "name": "place",
          "type": "string"
        },
        {
          "internalType": "string",
          "name": "hashFileActor",
          "type": "string"
        }
      ],
      "stateMutability": "view",
      "type": "function",
      "constant": true
    },
    {
      "inputs": [
        {
          "internalType": "uint256",
          "name": "",
          "type": "uint256"
        }
      ],
      "name": "DisLotStock",
      "outputs": [
        {
          "internalType": "uint256",
          "name": "id",
          "type": "uint256"
        },
        {
          "internalType": "uint256",
          "name": "absolute_id",
          "type": "uint256"
        },
        {
          "internalType": "uint256",
          "name": "id_product",
          "type": "uint256"
        },
        {
          "internalType": "uint256",
          "name": "size",
          "type": "uint256"
        },
        {
          "internalType": "string",
          "name": "location",
          "type": "string"
        },
        {
          "internalType": "address",
          "name": "actor",
          "type": "address"
        }
      ],
      "stateMutability": "view",
      "type": "function",
      "constant": true
    },
    {
      "inputs": [
        {
          "internalType": "uint256",
          "name": "",
          "type": "uint256"
        }
      ],
      "name": "LotStock",
      "outputs": [
        {
          "internalType": "uint256",
          "name": "id",
          "type": "uint256"
        },
        {
          "internalType": "uint256",
          "name": "id_product",
          "type": "uint256"
        },
        {
          "internalType": "uint256",
          "name": "size",
          "type": "uint256"
        },
        {
          "internalType": "enum SupplyChain.STAGE",
          "name": "stage",
          "type": "uint8"
        },
        {
          "internalType": "bool",
          "name": "active",
          "type": "bool"
        }
      ],
      "stateMutability": "view",
      "type": "function",
      "constant": true
    },
    {
      "inputs": [
        {
          "internalType": "uint256",
          "name": "",
          "type": "uint256"
        }
      ],
      "name": "ManLotStock",
      "outputs": [
        {
          "internalType": "uint256",
          "name": "id",
          "type": "uint256"
        },
        {
          "internalType": "uint256",
          "name": "absolute_id",
          "type": "uint256"
        },
        {
          "internalType": "uint256",
          "name": "id_product",
          "type": "uint256"
        },
        {
          "internalType": "uint256",
          "name": "size",
          "type": "uint256"
        },
        {
          "internalType": "string",
          "name": "location",
          "type": "string"
        },
        {
          "internalType": "address",
          "name": "actor",
          "type": "address"
        }
      ],
      "stateMutability": "view",
      "type": "function",
      "constant": true
    },
    {
      "inputs": [],
      "name": "Owner",
      "outputs": [
        {
          "internalType": "address",
          "name": "",
          "type": "address"
        }
      ],
      "stateMutability": "view",
      "type": "function",
      "constant": true
    },
    {
      "inputs": [
        {
          "internalType": "uint256",
          "name": "",
          "type": "uint256"
        }
      ],
      "name": "ProductStock",
      "outputs": [
        {
          "internalType": "uint256",
          "name": "id",
          "type": "uint256"
        },
        {
          "internalType": "string",
          "name": "name",
          "type": "string"
        },
        {
          "internalType": "bool",
          "name": "simple",
          "type": "bool"
        },
        {
          "internalType": "bool",
          "name": "active",
          "type": "bool"
        }
      ],
      "stateMutability": "view",
      "type": "function",
      "constant": true
    },
    {
      "inputs": [
        {
          "internalType": "uint256",
          "name": "",
          "type": "uint256"
        }
      ],
      "name": "RetLotStock",
      "outputs": [
        {
          "internalType": "uint256",
          "name": "id",
          "type": "uint256"
        },
        {
          "internalType": "uint256",
          "name": "absolute_id",
          "type": "uint256"
        },
        {
          "internalType": "uint256",
          "name": "id_product",
          "type": "uint256"
        },
        {
          "internalType": "uint256",
          "name": "size",
          "type": "uint256"
        },
        {
          "internalType": "string",
          "name": "location",
          "type": "string"
        },
        {
          "internalType": "address",
          "name": "actor",
          "type": "address"
        }
      ],
      "stateMutability": "view",
      "type": "function",
      "constant": true
    },
    {
      "inputs": [
        {
          "internalType": "uint256",
          "name": "",
          "type": "uint256"
        }
      ],
      "name": "SupLotStock",
      "outputs": [
        {
          "internalType": "uint256",
          "name": "id",
          "type": "uint256"
        },
        {
          "internalType": "uint256",
          "name": "absolute_id",
          "type": "uint256"
        },
        {
          "internalType": "uint256",
          "name": "id_product",
          "type": "uint256"
        },
        {
          "internalType": "uint256",
          "name": "size",
          "type": "uint256"
        },
        {
          "internalType": "string",
          "name": "location",
          "type": "string"
        },
        {
          "internalType": "address",
          "name": "actor",
          "type": "address"
        }
      ],
      "stateMutability": "view",
      "type": "function",
      "constant": true
    },
    {
      "inputs": [],
      "name": "absoluteCtr",
      "outputs": [
        {
          "internalType": "uint256",
          "name": "",
          "type": "uint256"
        }
      ],
      "stateMutability": "view",
      "type": "function",
      "constant": true
    },
    {
      "inputs": [],
      "name": "actionCtr",
      "outputs": [
        {
          "internalType": "uint256",
          "name": "",
          "type": "uint256"
        }
      ],
      "stateMutability": "view",
      "type": "function",
      "constant": true
    },
    {
      "inputs": [],
      "name": "actorCtr",
      "outputs": [
        {
          "internalType": "uint256",
          "name": "",
          "type": "uint256"
        }
      ],
      "stateMutability": "view",
      "type": "function",
      "constant": true
    },
    {
      "inputs": [],
      "name": "disLotCtr",
      "outputs": [
        {
          "internalType": "uint256",
          "name": "",
          "type": "uint256"
        }
      ],
      "stateMutability": "view",
      "type": "function",
      "constant": true
    },
    {
      "inputs": [
        {
          "internalType": "uint256",
          "name": "",
          "type": "uint256"
        }
      ],
      "name": "elementCount",
      "outputs": [
        {
          "internalType": "uint256",
          "name": "",
          "type": "uint256"
        }
      ],
      "stateMutability": "view",
      "type": "function",
      "constant": true
    },
    {
      "inputs": [],
      "name": "manLotCtr",
      "outputs": [
        {
          "internalType": "uint256",
          "name": "",
          "type": "uint256"
        }
      ],
      "stateMutability": "view",
      "type": "function",
      "constant": true
    },
    {
      "inputs": [],
      "name": "productCtr",
      "outputs": [
        {
          "internalType": "uint256",
          "name": "",
          "type": "uint256"
        }
      ],
      "stateMutability": "view",
      "type": "function",
      "constant": true
    },
    {
      "inputs": [],
      "name": "retLotCtr",
      "outputs": [
        {
          "internalType": "uint256",
          "name": "",
          "type": "uint256"
        }
      ],
      "stateMutability": "view",
      "type": "function",
      "constant": true
    },
    {
      "inputs": [],
      "name": "supLotCtr",
      "outputs": [
        {
          "internalType": "uint256",
          "name": "",
          "type": "uint256"
        }
      ],
      "stateMutability": "view",
      "type": "function",
      "constant": true
    },
    {
      "inputs": [
        {
          "internalType": "address",
          "name": "",
          "type": "address"
        }
      ],
      "name": "userFiles",
      "outputs": [
        {
          "internalType": "string",
          "name": "",
          "type": "string"
        }
      ],
      "stateMutability": "view",
      "type": "function",
      "constant": true
    },
    {
      "inputs": [
        {
          "internalType": "string",
          "name": "file",
          "type": "string"
        }
      ],
      "name": "setFile",
      "outputs": [],
      "stateMutability": "nonpayable",
      "type": "function"
    },
    {
      "inputs": [
        {
          "internalType": "address",
          "name": "_address",
          "type": "address"
        },
        {
          "internalType": "enum SupplyChain.ROLE[]",
          "name": "_role",
          "type": "uint8[]"
        },
        {
          "internalType": "string",
          "name": "_name",
          "type": "string"
        },
        {
          "internalType": "string",
          "name": "_place",
          "type": "string"
        },
        {
          "internalType": "string",
          "name": "hashFileAcor",
          "type": "string"
        }
      ],
      "name": "addActor",
      "outputs": [],
      "stateMutability": "nonpayable",
      "type": "function"
    },
    {
      "inputs": [
        {
          "internalType": "string",
          "name": "_name",
          "type": "string"
        },
        {
          "internalType": "uint256[]",
          "name": "_ingredient",
          "type": "uint256[]"
        },
        {
          "internalType": "string[]",
          "name": "hashFileProduct",
          "type": "string[]"
        }
      ],
      "name": "addProduct",
      "outputs": [],
      "stateMutability": "nonpayable",
      "type": "function"
    },
    {
      "inputs": [
        {
          "internalType": "uint256",
          "name": "_id",
          "type": "uint256"
        }
      ],
      "name": "deleteProd",
      "outputs": [],
      "stateMutability": "nonpayable",
      "type": "function"
    },
    {
      "inputs": [
        {
          "internalType": "uint256",
          "name": "_prodId",
          "type": "uint256"
        },
        {
          "internalType": "uint256",
          "name": "_size",
          "type": "uint256"
        },
        {
          "internalType": "string",
          "name": "_location",
          "type": "string"
        }
      ],
      "name": "addLot",
      "outputs": [],
      "stateMutability": "nonpayable",
      "type": "function"
    },
    {
      "inputs": [
        {
          "internalType": "uint256[]",
          "name": "_source",
          "type": "uint256[]"
        },
        {
          "internalType": "string",
          "name": "_location",
          "type": "string"
        },
        {
          "internalType": "enum SupplyChain.ROLE",
          "name": "_role",
          "type": "uint8"
        },
        {
          "internalType": "uint256",
          "name": "_duration",
          "type": "uint256"
        },
        {
          "internalType": "string",
          "name": "hashFileAction",
          "type": "string"
        }
      ],
      "name": "baseActions",
      "outputs": [],
      "stateMutability": "nonpayable",
      "type": "function"
    },
    {
      "inputs": [
        {
          "internalType": "uint256",
          "name": "_absoluteId",
          "type": "uint256"
        }
      ],
      "name": "sellLot",
      "outputs": [],
      "stateMutability": "nonpayable",
      "type": "function"
    },
    {
      "inputs": [
        {
          "internalType": "uint256",
          "name": "_absoluteId",
          "type": "uint256"
        }
      ],
      "name": "destruction",
      "outputs": [],
      "stateMutability": "nonpayable",
      "type": "function"
    },
    {
      "inputs": [
        {
          "internalType": "uint256[]",
          "name": "_source",
          "type": "uint256[]"
        },
        {
          "internalType": "uint256",
          "name": "_idProd",
          "type": "uint256"
        },
        {
          "internalType": "uint256",
          "name": "_size",
          "type": "uint256"
        },
        {
          "internalType": "string",
          "name": "_location",
          "type": "string"
        },
        {
          "internalType": "uint256",
          "name": "_duration",
          "type": "uint256"
        },
        {
          "internalType": "string",
          "name": "hashFileAction",
          "type": "string"
        }
      ],
      "name": "transform",
      "outputs": [],
      "stateMutability": "nonpayable",
      "type": "function"
    },
    {
      "inputs": [
        {
          "internalType": "uint256[]",
          "name": "_absoluteIds",
          "type": "uint256[]"
        },
        {
          "internalType": "uint256",
          "name": "productId",
          "type": "uint256"
        },
        {
          "internalType": "string",
          "name": "_location",
          "type": "string"
        },
        {
          "internalType": "uint256",
          "name": "_duration",
          "type": "uint256"
        },
        {
          "internalType": "string",
          "name": "hashFileAction",
          "type": "string"
        }
      ],
      "name": "integrate",
      "outputs": [],
      "stateMutability": "nonpayable",
      "type": "function"
    },
    {
      "inputs": [
        {
          "internalType": "uint256",
          "name": "_absLotId",
          "type": "uint256"
        },
        {
          "internalType": "uint256[]",
          "name": "_sizes",
          "type": "uint256[]"
        },
        {
          "internalType": "string",
          "name": "_location",
          "type": "string"
        },
        {
          "internalType": "uint256",
          "name": "_duration",
          "type": "uint256"
        },
        {
          "internalType": "string",
          "name": "hashFileAction",
          "type": "string"
        }
      ],
      "name": "division",
      "outputs": [],
      "stateMutability": "nonpayable",
      "type": "function"
    },
    {
      "inputs": [
        {
          "internalType": "uint256",
          "name": "_productId",
          "type": "uint256"
        }
      ],
      "name": "getProductIngredient",
      "outputs": [
        {
          "internalType": "uint256[]",
          "name": "",
          "type": "uint256[]"
        }
      ],
      "stateMutability": "view",
      "type": "function",
      "constant": true
    },
    {
      "inputs": [
        {
          "internalType": "uint256",
          "name": "_productId",
          "type": "uint256"
        }
      ],
      "name": "getProductHahs",
      "outputs": [
        {
          "internalType": "string[]",
          "name": "",
          "type": "string[]"
        }
      ],
      "stateMutability": "view",
      "type": "function",
      "constant": true
    },
    {
      "inputs": [
        {
          "internalType": "uint256",
          "name": "_actionId",
          "type": "uint256"
        }
      ],
      "name": "getSourceAction",
      "outputs": [
        {
          "internalType": "uint256[]",
          "name": "",
          "type": "uint256[]"
        }
      ],
      "stateMutability": "view",
      "type": "function",
      "constant": true
    },
    {
      "inputs": [
        {
          "internalType": "uint256",
          "name": "_actionId",
          "type": "uint256"
        }
      ],
      "name": "getSinkAction",
      "outputs": [
        {
          "internalType": "uint256[]",
          "name": "",
          "type": "uint256[]"
        }
      ],
      "stateMutability": "view",
      "type": "function",
      "constant": true
    }
  ],
  "bytecode": "0x608060405234801561001057600080fd5b5060008054600160a060020a03191633179055614133806100326000396000f3fe608060405234801561001057600080fd5b5060043610610223576000357c01000000000000000000000000000000000000000000000000000000009004806388721b0311610137578063b4272ce9116100ca578063df53feef11610099578063df53feef146104ef578063e14e6eec146104f8578063e423c15814610518578063f00f78231461052b578063f0e6187e1461053457600080fd5b8063b4272ce914610477578063b4a99a4e1461049b578063b7b3424e146104c6578063cd7a97e9146104cf57600080fd5b8063a1fdc88511610106578063a1fdc88514610432578063aa9a164514610445578063aaea34aa1461044e578063b0b190721461045757600080fd5b806388721b03146103e657806389b8a13c146103f957806390a2daff1461040c5780639421347d1461041f57600080fd5b806348f2dd97116101ba5780637f004f00116101895780637f004f001461037f57806381a0959f1461039257806383175b441461039b578063841215ef146103c0578063866925b1146103d357600080fd5b806348f2dd97146102e45780635573d8b2146102f75780635afc04781461031a57806373029bdd1461036c57600080fd5b80633ff74d50116101f65780633ff74d501461029057806343abd258146102a3578063459db0bc146102b657806347e1e144146102bf57600080fd5b806317e909b41461022857806321df42d4146102515780632d88728114610266578063341986bf1461027d575b600080fd5b61023b610236366004613689565b610547565b60405161024891906136a2565b60405180910390f35b61026461025f36600461382c565b6105ac565b005b61026f60055481565b604051908152602001610248565b61026461028b3660046138c8565b610a33565b61026461029e36600461396c565b610e17565b6102646102b1366004613689565b6112d4565b61026f60075481565b6102d26102cd366004613689565b611307565b60405161024896959493929190613a0b565b6102646102f2366004613689565b6113cf565b61030a610305366004613689565b611f00565b6040516102489493929190613a52565b61035b610328366004613689565b600a6020526000908152604090208054600182015460028301546003909301549192909160ff8082169161010090041685565b604051610248959493929190613a9c565b61026461037a366004613aed565b611fb7565b6102d261038d366004613689565b61299b565b61026f60045481565b6103ae6103a9366004613689565b6129d1565b60405161024896959493929190613b59565b6102646103ce366004613689565b612bc1565b6102646103e1366004613be1565b612c7a565b6102d26103f4366004613689565b612dfb565b610264610407366004613ced565b612e31565b6102d261041a366004613689565b6130fb565b61023b61042d366004613689565b613131565b61023b610440366004613689565b613194565b61026f60015481565b61026f60025481565b61046a610465366004613d3d565b6131f7565b6040516102489190613d5f565b61048a610485366004613689565b613291565b604051610248959493929190613d72565b6000546104ae90600160a060020a031681565b604051600160a060020a039091168152602001610248565b61026f60085481565b6104e26104dd366004613689565b61334e565b6040516102489190613db8565b61026f60035481565b61026f610506366004613689565b60116020526000908152604090205481565b610264610526366004613e19565b61343d565b61026f60065481565b610264610542366004613e56565b61345a565b6000818152600f60209081526040918290206003018054835181840281018401909452808452606093928301828280156105a057602002820191906000526020600020905b81548152602001906001019080831161058c575b50505050509050919050565b60408051600180825281830190925260009182918291602080830190803683370190505090506000885167ffffffffffffffff8111156105ee576105ee6136e6565b604051908082528060200260200182016040528015610617578160200160208202803683370190505b50905060005b60055481116107135760005b8a51811015610700578a818151811061064457610644613f4b565b6020026020010151600c6000848152602001908152602001600020600101541480156106a95750600a60008c838151811061068157610681613f4b565b6020026020010151815260200190815260200160002060030160019054906101000a900460ff165b156106ee576000828152600c602052604090205483518490889081106106d1576106d1613f4b565b6020908102919091010152856106e681613f7d565b965050610700565b806106f881613f7d565b915050610629565b508061070b81613f7d565b91505061061d565b5060005b89518110156107b7576000600a60008c848151811061073857610738613f4b565b6020026020010151815260200190815260200160002060030160016101000a81548160ff021916908315150217905550600a60008b838151811061077e5761077e613f4b565b6020026020010151815260200190815260200160002060020154846107a39190613f96565b9350806107af81613f7d565b915050610717565b50600580549060006107c883613f7d565b9091555050600380549060006107dd83613f7d565b9091555050600880549060006107f283613f7d565b91905055506005548260008151811061080d5761080d613f4b565b6020908102919091018101919091526040805160c081018252600554808252600380548386019081528385018e8152606085018a8152608086018f81523360a08801526000958652600c909852959093208451815590516001820155915160028301559251928101929092559151600482019061088a9082614037565b5060a0918201516005919091018054600160a060020a031916600160a060020a039092169190911790556040805191820181526003805480845260208085018d8152858501898152600160608801818152608089018290526000958652600a9094529590932086518155905181860155915160028301555191810180549193909160ff19169083600481111561092257610922613a83565b021790555060809190910151600390910180549115156101000261ff00199092169190911790556040805160e081019091526008548152602081016005815260208082018490526040808301869052426060840152608083018a905260a09092018890526008546000908152600f825291909120825181559082015160018083018054909160ff19909116908360078111156109c0576109c0613a83565b0217905550604082015180516109e091600284019160209091019061355f565b50606082015180516109fc91600384019160209091019061355f565b506080820151600482015560a0820151600582015560c08201516006820190610a259082614037565b505050505050505050505050565b6040805160018082528183019092526000918291906020808301908036833701905050905060005b6005548111610b20576000818152600c60209081526040808320600101548352600a909152902060030154610100900460ff168015610adf5750600c60008a600081518110610aac57610aac613f4b565b6020026020010151815260200190815260200160002060010154600c600083815260200190815260200160002060010154145b8015610b0457506000818152600c6020526040902060050154600160a060020a031633145b15610b0e57600192505b80610b1881613f7d565b915050610a5b565b506000600a6000600c60008c600081518110610b3e57610b3e613f4b565b6020026020010151815260200190815260200160002060010154815260200190815260200160002060030160016101000a81548160ff02191690831515021790555060086000815480929190610b9390613f7d565b909155505060058054906000610ba883613f7d565b909155505060038054906000610bbd83613f7d565b919050555060055481600081518110610bd857610bd8613f4b565b6020026020010181815250506040518060a00160405280600354815260200188815260200187815260200160016004811115610c1657610c16613a83565b815260016020918201819052600380546000908152600a84526040908190208551815593850151848401558401516002840155606084015190830180549192909160ff191690836004811115610c6e57610c6e613a83565b0217905550608091820151600391820180549115156101000261ff00199092169190911790556040805160c081018252600554808252835460208084019182528385018e8152606085018e81529785018d81523360a08701526000948552600c9092529490922083518155905160018201559251600284015593519282019290925591519091906004820190610d049082614037565b5060a0919091015160059091018054600160a060020a031916600160a060020a039092169190911790556040805160e081019091526008548152602081016003815260208082018b905260408083018590524260608401526080830188905260a09092018690526008546000908152600f825291909120825181559082015160018083018054909160ff1990911690836007811115610da557610da5613a83565b021790555060408201518051610dc591600284019160209091019061355f565b5060608201518051610de191600384019160209091019061355f565b506080820151600482015560a0820151600582015560c08201516006820190610e0a9082614037565b5050505050505050505050565b6008805460009182610e2883613f7d565b9091555050604080516001808252818301909252600091602080830190803683370190505090506000865167ffffffffffffffff811115610e6b57610e6b6136e6565b604051908082528060200260200182016040528015610e94578160200160208202803683370190505b50905060005b8751811015610edc57878181518110610eb557610eb5613f4b565b602002602001015184610ec89190613f96565b935080610ed481613f7d565b915050610e9a565b506000888152600a60205260409020600201548314610efa57600080fd5b60005b6005548111610fbd576000818152600c602090815260408083206001908101548452600a90925290912060030154610100900460ff161515148015610f5257506000818152600c602052604090206001015489145b15610fab576000818152600c6020526040902060050154600160a060020a03163314610f7d57600080fd5b6000818152600c6020526040812054845190918591610f9e57610f9e613f4b565b6020026020010181815250505b80610fb581613f7d565b915050610efd565b5060005b87518110156111d55760058054906000610fda83613f7d565b909155505060038054906000610fef83613f7d565b919050555060055482828151811061100957611009613f4b565b6020026020010181815250506040518060c0016040528060055481526020016003548152602001600a60008c815260200190815260200160002060010154815260200189838151811061105e5761105e613f4b565b60209081029190910181015182528181018a9052336040928301526005546000908152600c82528290208351815590830151600182015590820151600282015560608201516003820155608082015160048201906110bc9082614037565b5060a0918201516005919091018054600160a060020a031916600160a060020a03909216919091179055604080519182018152600354825260008b8152600a60209081529082902060010154908301528951908201908a908490811061112457611124613f4b565b602002602001015181526020016001600481111561114457611144613a83565b815260016020918201819052600380546000908152600a84526040908190208551815593850151848401558401516002840155606084015190830180549192909160ff19169083600481111561119c5761119c613a83565b021790555060809190910151600390910180549115156101000261ff0019909216919091179055806111cd81613f7d565b915050610fc1565b506040805160e081018252600854808252600660208084019182528385018790526060840186905242608085015260a084018a905260c084018990526000928352600f905292902081518155915160018084018054939493909160ff199091169083600781111561124857611248613a83565b02179055506040820151805161126891600284019160209091019061355f565b506060820151805161128491600384019160209091019061355f565b506080820151600482015560a0820151600582015560c082015160068201906112ad9082614037565b50505060009788525050600a60205250506040909320600301805461ff0019169055505050565b600054600160a060020a031633146112eb57600080fd5b6000908152600960205260409020600201805461ff0019169055565b600c6020526000908152604090208054600182015460028301546003840154600485018054949593949293919261133d90613faf565b80601f016020809104026020016040519081016040528092919081815260200182805461136990613faf565b80156113b65780601f1061138b576101008083540402835291602001916113b6565b820191906000526020600020905b81548152906001019060200180831161139957829003601f168201915b50505060059093015491925050600160a060020a031686565b60046000828152600a602052604090206003015460ff1660048111156113f7576113f7613a83565b0361140157600080fd5b6000818152600a602052604081206003015460ff16600481111561142757611427613a83565b1061148b5760005b6004548111611489576000818152600b6020526040902060010154829003611477576000818152600b6020526040902060050154600160a060020a0316331461147757600080fd5b8061148181613f7d565b91505061142f565b505b60016000828152600a602052604090206003015460ff1660048111156114b3576114b3613a83565b106115175760005b6005548111611515576000818152600c6020526040902060010154829003611503576000818152600c6020526040902060050154600160a060020a0316331461150357600080fd5b8061150d81613f7d565b9150506114bb565b505b60026000828152600a602052604090206003015460ff16600481111561153f5761153f613a83565b106115a35760005b60065481116115a1576000818152600d602052604090206001015482900361158f576000818152600d6020526040902060050154600160a060020a0316331461158f57600080fd5b8061159981613f7d565b915050611547565b505b60036000828152600a602052604090206003015460ff1660048111156115cb576115cb613a83565b1061162f5760005b600754811161162d576000818152600e602052604090206001015482900361161b576000818152600d6020526040902060050154600160a060020a0316331461161b57600080fd5b8061162581613f7d565b9150506115d3565b505b60015b6008548111611c1f576000818152600f602052604081206001015460ff16600781111561166157611661613a83565b1480611692575060046000828152600f602052604090206001015460ff16600781111561169057611690613a83565b145b806116c2575060036000828152600f602052604090206001015460ff1660078111156116c0576116c0613a83565b145b156117775781600c6000600f60008581526020019081526020016000206003016000815481106116f4576116f4613f4b565b906000526020600020015481526020019081526020016000206001015403611772576000818152600f6020526040812081815560018101805460ff191690559061174160028301826135aa565b61174f6003830160006135aa565b6004820160009055600582016000905560068201600061176f91906135cb565b50505b611c0d565b60066000828152600f602052604090206001015460ff16600781111561179f5761179f613a83565b0361192c5781600c6000600f60008581526020019081526020016000206002016000815481106117d1576117d1613f4b565b90600052602060002001548152602001908152602001600020600101540361184f576000818152600f6020526040812081815560018101805460ff191690559061181e60028301826135aa565b61182c6003830160006135aa565b6004820160009055600582016000905560068201600061184c91906135cb565b50505b60005b6000828152600f602052604090206003015481116119265782600c6000600f6000868152602001908152602001600020600301848154811061189657611896613f4b565b906000526020600020015481526020019081526020016000206001015403611914576000828152600f6020526040812081815560018101805460ff19169055906118e360028301826135aa565b6118f16003830160006135aa565b6004820160009055600582016000905560068201600061191191906135cb565b50505b8061191e81613f7d565b915050611852565b50611c0d565b60056000828152600f602052604090206001015460ff16600781111561195457611954613a83565b03611adb5781600c6000600f600085815260200190815260200160002060030160008154811061198657611986613f4b565b906000526020600020015481526020019081526020016000206001015403611a04576000818152600f6020526040812081815560018101805460ff19169055906119d360028301826135aa565b6119e16003830160006135aa565b60048201600090556005820160009055600682016000611a0191906135cb565b50505b60005b6000828152600f602052604090206002015481116119265782600c6000600f60008681526020019081526020016000206002018481548110611a4b57611a4b613f4b565b906000526020600020015481526020019081526020016000206001015403611ac9576000828152600f6020526040812081815560018101805460ff1916905590611a9860028301826135aa565b611aa66003830160006135aa565b60048201600090556005820160009055600682016000611ac691906135cb565b50505b80611ad381613f7d565b915050611a07565b60016000828152600f602052604090206001015460ff166007811115611b0357611b03613a83565b03611b355781600d6000600f60008581526020019081526020016000206003016000815481106116f4576116f4613f4b565b60026000828152600f602052604090206001015460ff166007811115611b5d57611b5d613a83565b03611c0d5781600e6000600f6000858152602001908152602001600020600301600081548110611b8f57611b8f613f4b565b906000526020600020015481526020019081526020016000206001015403611c0d576000818152600f6020526040812081815560018101805460ff1916905590611bdc60028301826135aa565b611bea6003830160006135aa565b60048201600090556005820160009055600682016000611c0a91906135cb565b50505b80611c1781613f7d565b915050611632565b506000818152600a602052604081206003015460ff166004811115611c4657611c46613a83565b10611ccb5760005b6004548111611cc9576000818152600b6020526040902060010154829003611cb7576000818152600b6020526040812081815560018101829055600281018290556003810182905590611ca460048301826135cb565b506005018054600160a060020a03191690555b80611cc181613f7d565b915050611c4e565b505b60016000828152600a602052604090206003015460ff166004811115611cf357611cf3613a83565b10611d785760005b6005548111611d76576000818152600c6020526040902060010154829003611d64576000818152600c6020526040812081815560018101829055600281018290556003810182905590611d5160048301826135cb565b506005018054600160a060020a03191690555b80611d6e81613f7d565b915050611cfb565b505b60026000828152600a602052604090206003015460ff166004811115611da057611da0613a83565b10611e255760005b6006548111611e23576000818152600d6020526040902060010154829003611e11576000818152600d6020526040812081815560018101829055600281018290556003810182905590611dfe60048301826135cb565b506005018054600160a060020a03191690555b80611e1b81613f7d565b915050611da8565b505b60036000828152600a602052604090206003015460ff166004811115611e4d57611e4d613a83565b10611ed25760005b6007548111611ed0576000818152600e6020526040902060010154829003611ebe576000818152600e6020526040812081815560018101829055600281018290556003810182905590611eab60048301826135cb565b506005018054600160a060020a03191690555b80611ec881613f7d565b915050611e55565b505b6000908152600a60205260408120818155600181018290556002810191909155600301805461ffff19169055565b60096020526000908152604090208054600182018054919291611f2290613faf565b80601f0160208091040260200160405190810160405280929190818152602001828054611f4e90613faf565b8015611f9b5780601f10611f7057610100808354040283529160200191611f9b565b820191906000526020600020905b815481529060010190602001808311611f7e57829003601f168201915b5050506002909301549192505060ff8082169161010090041684565b826000805b600154811161206e57600081815260106020526040902060010154600160a060020a03163314801561203b5750826003811115611ffb57611ffb613a83565b60008281526010602052604090206001015474010000000000000000000000000000000000000000900460ff16600381111561203957612039613a83565b145b80156120525750600054600160a060020a03163314155b1561205c57600191505b8061206681613f7d565b915050611fbc565b508061207957600080fd5b6008805490600061208983613f7d565b90915550506040805160018082528183019092526000916020808301908036833701905050905060018660038111156120c4576120c4613a83565b03612410576000600a6000600b60008c6000815181106120e6576120e6613f4b565b6020026020010151815260200190815260200160002060010154815260200190815260200160002060030160009054906101000a900460ff16600481111561213057612130613a83565b1461213a57600080fd5b6005805490600061214a83613f7d565b91905055506005548160008151811061216557612165613f4b565b6020026020010181815250506040518060c001604052806005548152602001600b60008b60008151811061219b5761219b613f4b565b60200260200101518152602001908152602001600020600101548152602001600b60008b6000815181106121d1576121d1613f4b565b60200260200101518152602001908152602001600020600201548152602001600b60008b60008151811061220757612207613f4b565b6020026020010151815260200190815260200160002060030154815260200188815260200133600160a060020a0316815250600c6000600554815260200190815260200160002060008201518160000155602082015181600101556040820151816002015560608201518160030155608082015181600401908161228b9190614037565b5060a08201518160050160006101000a815481600160a060020a030219169083600160a060020a031602179055509050506001600a6000600b60008c6000815181106122d9576122d9613f4b565b6020026020010151815260200190815260200160002060010154815260200190815260200160002060030160006101000a81548160ff0219169083600481111561232557612325613a83565b02179055506040805160e0810190915260085481526020810160005b815260208082018b905260408083018590524260608401526080830189905260a09092018790526008546000908152600f825291909120825181559082015160018083018054909160ff19909116908360078111156123a2576123a2613a83565b0217905550604082015180516123c291600284019160209091019061355f565b50606082015180516123de91600384019160209091019061355f565b506080820151600482015560a0820151600582015560c082015160068201906124079082614037565b50905050612991565b600286600381111561242457612424613a83565b036126a5576001600a6000600c60008c60008151811061244657612446613f4b565b6020026020010151815260200190815260200160002060010154815260200190815260200160002060030160009054906101000a900460ff16600481111561249057612490613a83565b1461249a57600080fd5b600680549060006124aa83613f7d565b9190505550600654816000815181106124c5576124c5613f4b565b6020026020010181815250506040518060c001604052806006548152602001600c60008b6000815181106124fb576124fb613f4b565b60200260200101518152602001908152602001600020600101548152602001600c60008b60008151811061253157612531613f4b565b60200260200101518152602001908152602001600020600201548152602001600c60008b60008151811061256757612567613f4b565b6020026020010151815260200190815260200160002060030154815260200188815260200133600160a060020a0316815250600d600060065481526020019081526020016000206000820151816000015560208201518160010155604082015181600201556060820151816003015560808201518160040190816125eb9190614037565b5060a08201518160050160006101000a815481600160a060020a030219169083600160a060020a031602179055509050506002600a6000600c60008c60008151811061263957612639613f4b565b6020026020010151815260200190815260200160002060010154815260200190815260200160002060030160006101000a81548160ff0219169083600481111561268557612685613a83565b02179055506040805160e081019091526008548152602081016001612341565b60038660038111156126b9576126b9613a83565b03612991576002600a6000600d60008c6000815181106126db576126db613f4b565b6020026020010151815260200190815260200160002060010154815260200190815260200160002060030160009054906101000a900460ff16600481111561272557612725613a83565b1461272f57600080fd5b6007805490600061273f83613f7d565b91905055506007548160008151811061275a5761275a613f4b565b6020026020010181815250506040518060c001604052806007548152602001600d60008b60008151811061279057612790613f4b565b60200260200101518152602001908152602001600020600101548152602001600d60008b6000815181106127c6576127c6613f4b565b60200260200101518152602001908152602001600020600201548152602001600d60008b6000815181106127fc576127fc613f4b565b6020026020010151815260200190815260200160002060030154815260200188815260200133600160a060020a0316815250600e600060075481526020019081526020016000206000820151816000015560208201518160010155604082015181600201556060820151816003015560808201518160040190816128809190614037565b5060a08201518160050160006101000a815481600160a060020a030219169083600160a060020a031602179055509050506003600a6000600d60008c6000815181106128ce576128ce613f4b565b6020026020010151815260200190815260200160002060010154815260200190815260200160002060030160006101000a81548160ff0219169083600481111561291a5761291a613a83565b02179055506040805160e081018252600854808252600260208084019182528385018d90526060840186905242608085015260a084018a905260c084018990526000928352600f905292902081518155915160018084018054939493909160ff1990911690836007811115610da557610da5613a83565b5050505050505050565b600e6020526000908152604090208054600182015460028301546003840154600485018054949593949293919261133d90613faf565b6010602052600090815260409020805460018201546002830180549293600160a060020a038316937401000000000000000000000000000000000000000090930460ff1692909190612a2290613faf565b80601f0160208091040260200160405190810160405280929190818152602001828054612a4e90613faf565b8015612a9b5780601f10612a7057610100808354040283529160200191612a9b565b820191906000526020600020905b815481529060010190602001808311612a7e57829003601f168201915b505050505090806003018054612ab090613faf565b80601f0160208091040260200160405190810160405280929190818152602001828054612adc90613faf565b8015612b295780601f10612afe57610100808354040283529160200191612b29565b820191906000526020600020905b815481529060010190602001808311612b0c57829003601f168201915b505050505090806004018054612b3e90613faf565b80601f0160208091040260200160405190810160405280929190818152602001828054612b6a90613faf565b8015612bb75780601f10612b8c57610100808354040283529160200191612bb7565b820191906000526020600020905b815481529060010190602001808311612b9a57829003601f168201915b5050505050905086565b6000805b6001548111612c5057600081815260106020526040902060010154600160a060020a031633148015612c345750600360008281526010602052604090206001015474010000000000000000000000000000000000000000900460ff166003811115612c3257612c32613a83565b145b15612c3e57600191505b80612c4881613f7d565b915050612bc5565b5080612c5b57600080fd5b506000908152600a60205260409020600301805460ff19166004179055565b600054600160a060020a03163314612c9157600080fd5b60005b8451811015612df35760018054906000612cad83613f7d565b91905055506040518060c00160405280600154815260200187600160a060020a03168152602001868381518110612ce657612ce6613f4b565b60200260200101516003811115612cff57612cff613a83565b81526020808201879052604080830187905260609092018590526001805460009081526010835283902084518155918401519082018054600160a060020a03909216600160a060020a0319831681178255938501519293909174ffffffffffffffffffffffffffffffffffffffffff19161774010000000000000000000000000000000000000000836003811115612d9957612d99613a83565b021790555060608201516002820190612db29082614037565b5060808201516003820190612dc79082614037565b5060a08201516004820190612ddc9082614037565b509050508080612deb90613f7d565b915050612c94565b505050505050565b600b6020526000908152604090208054600182015460028301546003840154600485018054949593949293919261133d90613faf565b60038054906000612e4183613f7d565b909155505060048054906000612e5683613f7d565b909155505060088054906000612e6b83613f7d565b90915550506040805160a081018252600380548083526020808401888152848601888152600060608701818152600160808901819052958252600a909452969096208551815590518184015594516002860155519184018054939493909160ff1990911690836004811115612ee257612ee2613a83565b0217905550608091820151600391820180549115156101000261ff00199092169190911790556040805160c08101825260048054808352845460208085019182528486018b8152606086018b81529886018a81523360a08801526000948552600b9092529590922084518155905160018201559351600285015594519383019390935592519091820190612f769082614037565b5060a0919091015160059091018054600160a060020a031916600160a060020a0390921691909117905560408051600180825281830190925260009160208083019080368337505060408051600180825281830190925292935060009291506020808301908036833701905050905060045481600081518110612ffb57612ffb613f4b565b6020026020010181815250506040518060e00160405280600854815260200160078081111561302c5761302c613a83565b8152602080820185905260408083018590524260608401526000608084018190528151808401835281815260a0909401939093526008548352600f8252909120825181559082015160018083018054909160ff199091169083600781111561309657613096613a83565b0217905550604082015180516130b691600284019160209091019061355f565b50606082015180516130d291600384019160209091019061355f565b506080820151600482015560a0820151600582015560c082015160068201906129919082614037565b600d6020526000908152604090208054600182015460028301546003840154600485018054949593949293919261133d90613faf565b6000818152600960209081526040918290206003018054835181840281018401909452808452606093928301828280156105a0576020028201919060005260206000209081548152602001906001019080831161058c5750505050509050919050565b6000818152600f60209081526040918290206002018054835181840281018401909452808452606093928301828280156105a0576020028201919060005260206000209081548152602001906001019080831161058c5750505050509050919050565b6012602052600090815260409020805461321090613faf565b80601f016020809104026020016040519081016040528092919081815260200182805461323c90613faf565b80156132895780601f1061325e57610100808354040283529160200191613289565b820191906000526020600020905b81548152906001019060200180831161326c57829003601f168201915b505050505081565b600f6020526000908152604090208054600182015460048301546005840154600685018054949560ff90941694929391926132cb90613faf565b80601f01602080910402602001604051908101604052809291908181526020018280546132f790613faf565b80156133445780601f1061331957610100808354040283529160200191613344565b820191906000526020600020905b81548152906001019060200180831161332757829003601f168201915b5050505050905085565b606060096000838152602001908152602001600020600401805480602002602001604051908101604052809291908181526020016000905b828210156134325783829060005260206000200180546133a590613faf565b80601f01602080910402602001604051908101604052809291908181526020018280546133d190613faf565b801561341e5780601f106133f35761010080835404028352916020019161341e565b820191906000526020600020905b81548152906001019060200180831161340157829003601f168201915b505050505081526020019060010190613386565b505050509050919050565b3360009081526012602052604090206134568282614037565b5050565b600054600160a060020a0316331461347157600080fd5b6002805490600061348183613f7d565b9091555050815160019015613494575060005b6040805160c0810182526002548082526020808301888152851515848601526001606085018190526080850189905260a085018890526000938452600990925293909120825181559251919291908201906134ef9082614037565b506040820151600282018054606085015115156101000261ff00199315159390931661ffff19909116179190911790556080820151805161353a91600384019160209091019061355f565b5060a08201518051613556916004840191602090910190613605565b50505050505050565b82805482825590600052602060002090810192821561359a579160200282015b8281111561359a57825182559160200191906001019061357f565b506135a6929150613657565b5090565b50805460008255906000526020600020908101906135c89190613657565b50565b5080546135d790613faf565b6000825580601f106135e7575050565b601f0160209004906000526020600020908101906135c89190613657565b82805482825590600052602060002090810192821561364b579160200282015b8281111561364b578251829061363b9082614037565b5091602001919060010190613625565b506135a692915061366c565b5b808211156135a65760008155600101613658565b808211156135a657600061368082826135cb565b5060010161366c565b60006020828403121561369b57600080fd5b5035919050565b6020808252825182820181905260009190848201906040850190845b818110156136da578351835292840192918401916001016136be565b50909695505050505050565b60e060020a634e487b7102600052604160045260246000fd5b604051601f8201601f1916810167ffffffffffffffff81118282101715613728576137286136e6565b604052919050565b600067ffffffffffffffff82111561374a5761374a6136e6565b5060209081020190565b600082601f83011261376557600080fd5b8135602061377a61377583613730565b6136ff565b8281529181028401810191818101908684111561379657600080fd5b8286015b848110156137b1578035835291830191830161379a565b509695505050505050565b600082601f8301126137cd57600080fd5b813567ffffffffffffffff8111156137e7576137e76136e6565b6137fa601f8201601f19166020016136ff565b81815284602083860101111561380f57600080fd5b816020850160208301376000918101602001919091529392505050565b600080600080600060a0868803121561384457600080fd5b853567ffffffffffffffff8082111561385c57600080fd5b61386889838a01613754565b965060208801359550604088013591508082111561388557600080fd5b61389189838a016137bc565b94506060880135935060808801359150808211156138ae57600080fd5b506138bb888289016137bc565b9150509295509295909350565b60008060008060008060c087890312156138e157600080fd5b863567ffffffffffffffff808211156138f957600080fd5b6139058a838b01613754565b97506020890135965060408901359550606089013591508082111561392957600080fd5b6139358a838b016137bc565b94506080890135935060a089013591508082111561395257600080fd5b5061395f89828a016137bc565b9150509295509295509295565b600080600080600060a0868803121561398457600080fd5b85359450602086013567ffffffffffffffff808211156139a357600080fd5b6139af89838a01613754565b9550604088013591508082111561388557600080fd5b6000815180845260005b818110156139eb576020818501810151868301820152016139cf565b506000602082860101526020601f19601f83011685010191505092915050565b86815285602082015284604082015283606082015260c060808201526000613a3660c08301856139c5565b9050600160a060020a03831660a0830152979650505050505050565b848152608060208201526000613a6b60808301866139c5565b93151560408301525090151560609091015292915050565b60e060020a634e487b7102600052602160045260246000fd5b858152602081018590526040810184905260a0810160058410613ac157613ac1613a83565b83606083015282151560808301529695505050505050565b803560048110613ae857600080fd5b919050565b600080600080600060a08688031215613b0557600080fd5b853567ffffffffffffffff80821115613b1d57600080fd5b613b2989838a01613754565b96506020880135915080821115613b3f57600080fd5b613b4b89838a016137bc565b955061389160408901613ad9565b868152600160a060020a0386166020820152600060048610613b7d57613b7d613a83565b85604083015260c06060830152613b9760c08301866139c5565b8281036080840152613ba981866139c5565b905082810360a0840152613bbd81856139c5565b9998505050505050505050565b8035600160a060020a0381168114613ae857600080fd5b600080600080600060a08688031215613bf957600080fd5b613c0286613bca565b945060208087013567ffffffffffffffff80821115613c2057600080fd5b818901915089601f830112613c3457600080fd5b8135613c4261377582613730565b8181529084028301840190848101908c831115613c5e57600080fd5b938501935b82851015613c8357613c7485613ad9565b82529385019390850190613c63565b985050506040890135925080831115613c9b57600080fd5b613ca78a848b016137bc565b95506060890135925080831115613cbd57600080fd5b613cc98a848b016137bc565b94506080890135925080831115613cdf57600080fd5b50506138bb888289016137bc565b600080600060608486031215613d0257600080fd5b8335925060208401359150604084013567ffffffffffffffff811115613d2757600080fd5b613d33868287016137bc565b9150509250925092565b600060208284031215613d4f57600080fd5b613d5882613bca565b9392505050565b602081526000613d5860208301846139c5565b858152600060088610613d8757613d87613a83565b85602083015284604083015283606083015260a06080830152613dad60a08301846139c5565b979650505050505050565b600060208083018184528085518083526040860191506040848202870101925083870160005b82811015613e0c57603f19888603018452613dfa8583516139c5565b94509285019290850190600101613dde565b5092979650505050505050565b600060208284031215613e2b57600080fd5b813567ffffffffffffffff811115613e4257600080fd5b613e4e848285016137bc565b949350505050565b600080600060608486031215613e6b57600080fd5b833567ffffffffffffffff80821115613e8357600080fd5b613e8f878388016137bc565b9450602091508186013581811115613ea657600080fd5b613eb288828901613754565b945050604086013581811115613ec757600080fd5b8601601f81018813613ed857600080fd5b8035613ee661377582613730565b8181529084028201840190848101908a831115613f0257600080fd5b8584015b83811015613f3a57803586811115613f1e5760008081fd5b613f2c8d89838901016137bc565b845250918601918601613f06565b508096505050505050509250925092565b60e060020a634e487b7102600052603260045260246000fd5b60e060020a634e487b7102600052601160045260246000fd5b600060018201613f8f57613f8f613f64565b5060010190565b80820180821115613fa957613fa9613f64565b92915050565b600281046001821680613fc357607f821691505b602082108103613fe65760e060020a634e487b7102600052602260045260246000fd5b50919050565b601f821115614032576000818152602081206020601f860104810160208610156140135750805b6020601f860104820191505b81811015612df35782815560010161401f565b505050565b815167ffffffffffffffff811115614051576140516136e6565b6140658161405f8454613faf565b84613fec565b602080601f83116001811461409e57600084156140825750858301515b60028086026008870290910a6000190419821617865550612df3565b600085815260208120601f198616915b828110156140cd578886015182559484019460019091019084016140ae565b50858210156140ed57878501516008601f88160260020a60001904191681555b505050505060020260010190555056fea2646970667358221220989f2cd84235039dea83ea09268be22bc1cb18a9e078b1dca4c8011184e1889264736f6c63430008130033",
  "immutableReferences": {},
  "source": "// SPDX-License-Identifier: MIT\npragma solidity >=0.8.2 <0.9.0;\n\ncontract SupplyChain{\n    // Smart Contract owner will be the person who deploys the contract only he can authorize various roles Supplier, Manufacturer, Distributor, Retailer\n    address public Owner;\n\n    uint256 public actorCtr;\n    uint256 public productCtr;\n    uint256 public absoluteCtr;\n    uint256 public supLotCtr;\n    uint256 public manLotCtr;\n    uint256 public disLotCtr;\n    uint256 public retLotCtr;\n    uint256 public actionCtr;\n\n    // note this constructor will be called when smart contract will be deployed on blockchain\n    constructor() {\n        Owner = msg.sender;\n    }\n\n    // modifier to make sure only the owner is using the function\n    modifier onlyByOwner() {\n        require(msg.sender == Owner);\n        _;\n    }\n\n    modifier correctActor(ROLE _role){\n        bool cond=false;\n        for (uint256 i=0; i<=actorCtr; i++) {\n            if((Actors[i].addr == msg.sender) && (Actors[i].role == _role) && (msg.sender != Owner)) cond=true;\n        }\n        require(cond);\n        _;\n    }\n\n    // stages of a lot in supply chain\n    enum STAGE {\n        Supply,\n        Manufacturing,\n        Distribution,\n        Retail,\n        Sold\n    }\n\n    // roles for actor\n    enum ROLE {\n        Supplier,\n        Manufacturer,\n        Distributor,\n        Retailer\n    }\n\n    // all possible action\n    enum ACTION_TYPE {\n        Manufacture,\n        Distribution,\n        Retail,\n        Tranformation,\n        Alteration,\n        Integration,\n        Division,\n        Creation\n    }\n\n    struct product {\n        uint256 id;\n        string name;\n        bool simple;\n        bool active;\n        uint256[] ingredient;\n        string[] hashFileProduct;\n    }\n\n    struct lot{\n        uint256 id; // unique lot id\n        uint256 absolute_id; // id for that lot in all the supply-chain\n        uint256 id_product; // lot of this product\n        uint256 size; // size in kg of the lot\n        string location; // location of the lot\n        address actor; // id of the actor for this particular lot\n    }\n\n    struct absolute_lot{\n        uint256 id; // unique lot id\n        uint256 id_product; // lot of this product\n        uint256 size;\n        STAGE stage; // current lot stage\n        bool active; //if it's active it means it's still the same lot\n    }\n\n    struct action{\n        uint256 id;\n        ACTION_TYPE actionType;\n        uint256[] source;\n        uint256[] sink;\n        uint256 timestamp;\n        uint256 duration;\n        string hashFileAction;\n    }\n\n    struct actor {\n        uint256 id;\n        address addr;\n        ROLE role;\n        string name; \n        string place;\n        string hashFileActor; \n    }\n\n    mapping(uint256 => product) public ProductStock;\n    mapping(uint256 => absolute_lot) public LotStock;\n    mapping(uint256 => lot) public SupLotStock;\n    mapping(uint256 => lot) public ManLotStock;\n    mapping(uint256 => lot) public DisLotStock;\n    mapping(uint256 => lot) public RetLotStock;\n    mapping(uint256 => action) public Actions;\n    mapping(uint256 => actor) public Actors;\n    mapping(uint => uint) public elementCount;\n    mapping (address => string) public userFiles;\n\n    function setFile(string memory file) external {\n        userFiles[msg.sender] = file;\n    }\n\n    function addActor(address _address, ROLE[] memory _role, string memory _name, string memory _place, string memory hashFileAcor) public onlyByOwner() {\n        for(uint256 i=0; i<_role.length; i++){\n            actorCtr++;\n            Actors[actorCtr] = actor(actorCtr, _address, _role[i], _name, _place, hashFileAcor);\n        }\n    }\n\n    function addProduct(string memory _name, uint256[] memory _ingredient, string[] memory hashFileProduct) public onlyByOwner() {\n        productCtr++;\n        bool simple = true;\n        if (_ingredient.length != 0) simple = false;\n        ProductStock[productCtr] = product(productCtr, _name, simple, true, _ingredient, hashFileProduct);\n    }\n\n    function deleteProd(uint256 _id) public onlyByOwner() {\n        ProductStock[_id].active=false;\n    } \n\n    function addLot(uint256 _prodId, uint256 _size, string memory _location) public {\n        absoluteCtr++;\n        supLotCtr++;\n        actionCtr++;\n        LotStock[absoluteCtr] = absolute_lot(absoluteCtr, _prodId, _size, STAGE.Supply, true);\n        SupLotStock[supLotCtr] = lot(supLotCtr, absoluteCtr, _prodId, _size, _location, msg.sender);\n        uint256[] memory source = new uint[](1);\n        uint256[] memory sink = new uint[](1);\n        sink[0] = supLotCtr;\n        Actions[actionCtr] = action(actionCtr, ACTION_TYPE.Creation, source, sink, block.timestamp, 0, \"\");\n    }\n\n    function baseActions(uint256[] memory _source, string memory _location, ROLE _role, uint256 _duration, string memory hashFileAction) public correctActor(_role) {\n        actionCtr++;\n        uint256[] memory sink = new uint[](1);\n        if (_role == ROLE.Manufacturer){\n            require(LotStock[SupLotStock[_source[0]].absolute_id].stage == STAGE.Supply);\n            manLotCtr++;\n            sink[0] = manLotCtr;\n            ManLotStock[manLotCtr] = lot(manLotCtr, SupLotStock[_source[0]].absolute_id, SupLotStock[_source[0]].id_product, SupLotStock[_source[0]].size, _location, msg.sender);\n            LotStock[SupLotStock[_source[0]].absolute_id].stage = STAGE.Manufacturing;\n            Actions[actionCtr] = action(actionCtr, ACTION_TYPE.Manufacture, _source, sink, block.timestamp, _duration, hashFileAction);\n        } else if (_role == ROLE.Distributor){\n            require(LotStock[ManLotStock[_source[0]].absolute_id].stage == STAGE.Manufacturing);\n            disLotCtr++;\n            sink[0] = disLotCtr;\n            DisLotStock[disLotCtr] = lot(disLotCtr, ManLotStock[_source[0]].absolute_id, ManLotStock[_source[0]].id_product, ManLotStock[_source[0]].size, _location, msg.sender);\n            LotStock[ManLotStock[_source[0]].absolute_id].stage = STAGE.Distribution;\n            Actions[actionCtr] = action(actionCtr, ACTION_TYPE.Distribution, _source, sink, block.timestamp, _duration, hashFileAction);\n        } else if (_role == ROLE.Retailer){\n            require(LotStock[DisLotStock[_source[0]].absolute_id].stage == STAGE.Distribution);\n            retLotCtr++;\n            sink[0] = retLotCtr;\n            RetLotStock[retLotCtr] = lot(retLotCtr, DisLotStock[_source[0]].absolute_id, DisLotStock[_source[0]].id_product, DisLotStock[_source[0]].size, _location, msg.sender);\n            LotStock[DisLotStock[_source[0]].absolute_id].stage = STAGE.Retail;\n            Actions[actionCtr] = action(actionCtr, ACTION_TYPE.Retail, _source, sink, block.timestamp, _duration, hashFileAction);\n        }\n    }\n\n    function sellLot(uint256 _absoluteId) public {\n        bool cond=false;\n        for (uint256 i=0; i<=actorCtr; i++) {\n            if((Actors[i].addr == msg.sender) && (Actors[i].role == ROLE.Retailer)) cond=true;\n        }  \n        require(cond);\n        LotStock[_absoluteId].stage = STAGE.Sold;\n    }\n\n    function destruction(uint256 _absoluteId) public {\n        require(LotStock[_absoluteId].stage != STAGE.Sold);\n        if (LotStock[_absoluteId].stage >= STAGE.Supply){\n            for (uint256 i=0; i<=supLotCtr; i++) {\n                if (SupLotStock[i].absolute_id == _absoluteId) require(SupLotStock[i].actor==msg.sender);\n            }\n        }\n        if (LotStock[_absoluteId].stage >= STAGE.Manufacturing) {\n            for (uint256 i=0; i<=manLotCtr; i++) {\n                if (ManLotStock[i].absolute_id == _absoluteId) require(ManLotStock[i].actor==msg.sender);\n            }\n        }\n        if (LotStock[_absoluteId].stage >= STAGE.Distribution){\n            for (uint256 i=0; i<=disLotCtr; i++) {\n                if (DisLotStock[i].absolute_id == _absoluteId) require(DisLotStock[i].actor==msg.sender);\n            }\n        }\n        if (LotStock[_absoluteId].stage >= STAGE.Retail){\n            for (uint256 i=0; i<=retLotCtr; i++) {\n                if (RetLotStock[i].absolute_id == _absoluteId) require(DisLotStock[i].actor==msg.sender);\n            }\n        }\n        for (uint256 i=1; i<=actionCtr; i++){\n            if ((Actions[i].actionType == ACTION_TYPE.Manufacture) || (Actions[i].actionType == ACTION_TYPE.Alteration) || (Actions[i].actionType == ACTION_TYPE.Tranformation)){\n                if (ManLotStock[Actions[i].sink[0]].absolute_id == _absoluteId) delete Actions[i];\n            } \n            else if (Actions[i].actionType == ACTION_TYPE.Division){\n                if (ManLotStock[Actions[i].source[0]].absolute_id == _absoluteId) delete Actions[i];\n                for (uint256 j=0; j<=Actions[i].sink.length; j++) {\n                    if (ManLotStock[Actions[i].sink[j]].absolute_id == _absoluteId) delete Actions[i];\n                }\n            } \n            else if (Actions[i].actionType == ACTION_TYPE.Integration){\n                if (ManLotStock[Actions[i].sink[0]].absolute_id == _absoluteId) delete Actions[i];\n                for (uint256 j=0; j<=Actions[i].source.length; j++) {\n                    if (ManLotStock[Actions[i].source[j]].absolute_id == _absoluteId) delete Actions[i];\n                }\n            } \n            else if (Actions[i].actionType == ACTION_TYPE.Distribution) {\n                if (DisLotStock[Actions[i].sink[0]].absolute_id == _absoluteId) delete Actions[i];\n            }\n            else if (Actions[i].actionType == ACTION_TYPE.Retail){\n                if (RetLotStock[Actions[i].sink[0]].absolute_id == _absoluteId) delete Actions[i];\n            }\n        }\n        if (LotStock[_absoluteId].stage >= STAGE.Supply){\n            for (uint256 i=0; i<=supLotCtr; i++) {\n                if (SupLotStock[i].absolute_id == _absoluteId) delete SupLotStock[i];\n            }\n        }\n        if (LotStock[_absoluteId].stage >= STAGE.Manufacturing) {\n            for (uint256 i=0; i<=manLotCtr; i++) {\n                if (ManLotStock[i].absolute_id == _absoluteId) delete ManLotStock[i];\n            }\n        }\n        if (LotStock[_absoluteId].stage >= STAGE.Distribution){\n            for (uint256 i=0; i<=disLotCtr; i++) {\n                if (DisLotStock[i].absolute_id == _absoluteId) delete DisLotStock[i];\n            }\n        }\n        if (LotStock[_absoluteId].stage >= STAGE.Retail){\n            for (uint256 i=0; i<=retLotCtr; i++) {\n                if (RetLotStock[i].absolute_id == _absoluteId) delete RetLotStock[i];\n            }\n        }\n        delete LotStock[_absoluteId];\n    }\n\n    function transform(uint256[] memory _source, uint256 _idProd, uint256 _size, string memory _location, uint256 _duration, string memory hashFileAction) public {\n        bool cond=false;\n        uint256[] memory sink = new uint256[](1);\n        for(uint256 i=0; i<=manLotCtr; i++){\n            if((LotStock[ManLotStock[i].absolute_id].active) && (ManLotStock[i].absolute_id == ManLotStock[_source[0]].absolute_id) && (ManLotStock[i].actor == msg.sender)){\n                cond=true;\n            }\n        }\n        LotStock[ManLotStock[_source[0]].absolute_id].active=false;\n        actionCtr++;\n        manLotCtr++;\n        absoluteCtr++;\n        sink[0] = manLotCtr;\n        LotStock[absoluteCtr] = absolute_lot(absoluteCtr, _idProd, _size, STAGE.Manufacturing, true);\n        ManLotStock[manLotCtr] = lot(manLotCtr, absoluteCtr, _idProd, _size, _location, msg.sender);\n        Actions[actionCtr] = action(actionCtr, ACTION_TYPE.Tranformation, _source, sink, block.timestamp, _duration, hashFileAction);\n    }\n\n    function integrate(uint256[] memory _absoluteIds, uint256 productId, string memory _location, uint256 _duration, string memory hashFileAction) public {\n        uint256 count=0;\n        uint256 size = 0;\n        uint256[] memory sink = new uint256[](1);\n        uint256[] memory source = new uint256[](_absoluteIds.length);\n\n        for(uint256 i=0; i<=manLotCtr; i++){\n            for (uint j=0; j < _absoluteIds.length; j++) {\n                if ((ManLotStock[i].absolute_id == _absoluteIds[j]) && (LotStock[_absoluteIds[j]].active)) {\n                    source[count] = ManLotStock[i].id;\n                    count++;\n                    break;\n                }\n            }\n        }\n\n        for (uint256 i = 0; i < _absoluteIds.length; i++) {\n            LotStock[_absoluteIds[i]].active = false;\n            size += LotStock[_absoluteIds[i]].size;  \n        }\n        \n        manLotCtr++;\n        absoluteCtr++;\n        actionCtr++;\n        sink[0] = manLotCtr;\n        ManLotStock[manLotCtr] = lot(manLotCtr, absoluteCtr, productId, size, _location, msg.sender);\n        LotStock[absoluteCtr] = absolute_lot(absoluteCtr, productId, size, STAGE.Manufacturing, true);\n        \n        Actions[actionCtr] = action(actionCtr, ACTION_TYPE.Integration, source, sink, block.timestamp, _duration, hashFileAction);\n    }\n\n    function division(uint256 _absLotId, uint256[] memory _sizes, string memory _location, uint256 _duration, string memory hashFileAction) public {\n        uint256 sum;\n        actionCtr++;\n        uint256[] memory source = new uint256[](1);\n        uint256[] memory sink = new uint256[](_sizes.length);\n        for (uint256 i=0; i<_sizes.length; i++){\n            sum += _sizes[i];\n        }   \n        require(sum == LotStock[_absLotId].size);\n        for (uint256 i=0; i<=manLotCtr; i++){\n            if((LotStock[ManLotStock[i].absolute_id].active==true) && (ManLotStock[i].absolute_id == _absLotId)) {\n                require(ManLotStock[i].actor==msg.sender);\n                source[0] = ManLotStock[i].id;\n            }\n        }\n        for (uint256 i=0; i<_sizes.length; i++){\n            manLotCtr++;\n            absoluteCtr++;\n            sink[i]=manLotCtr;\n            ManLotStock[manLotCtr] = lot(manLotCtr, absoluteCtr, LotStock[_absLotId].id_product, _sizes[i], _location, msg.sender);\n            LotStock[absoluteCtr] = absolute_lot(absoluteCtr, LotStock[_absLotId].id_product, _sizes[i], STAGE.Manufacturing, true);\n        }  \n        Actions[actionCtr] = action(actionCtr, ACTION_TYPE.Division, source, sink, block.timestamp, _duration, hashFileAction);\n        LotStock[_absLotId].active = false;\n    }\n\n    function getProductIngredient(uint256 _productId) public view returns (uint256[] memory) {\n        return ProductStock[_productId].ingredient;\n    }\n\n    function getProductHahs(uint256 _productId) public view returns (string[] memory) {\n        return ProductStock[_productId].hashFileProduct;\n    }\n\n    function getSourceAction(uint256 _actionId) public view returns (uint256[] memory){\n        return Actions[_actionId].source;\n    }\n\n    function getSinkAction(uint256 _actionId) public view returns (uint256[] memory){\n        return Actions[_actionId].sink;\n    }\n\n    function checkArray(uint256[] memory array1, uint256[] memory array2) internal returns(bool){\n        for (uint i = 0; i < array1.length; i++) {\n            elementCount[array1[i]]=0;\n        }\n        for (uint i = 0; i < array2.length; i++) {\n            elementCount[array2[i]]=0;\n        }\n        if (array1.length != array2.length) {\n            return false;\n        }\n        for (uint i = 0; i < array1.length; i++) {\n            elementCount[array1[i]]++;\n        }\n        for (uint i = 0; i < array2.length; i++) {\n            elementCount[array2[i]]--;\n        }\n        for (uint i = 0; i < array1.length; i++) {\n            if (elementCount[array1[i]] != 0) {\n                return false;\n            }\n        }\n        return true;\n    }\n}",
  "sourcePath": "C:\\Users\\pietr\\OneDrive\\Desktop\\UNIBS\\Tesi_magi\\SupplyChain_AgriFood\\contracts\\SupplyChain.sol",
  "compiler": {
    "name": "solc",
    "version": "0.8.19+commit.7dd6d404.Emscripten.clang"
  },
  "schemaVersion": "3.4.16",
  "updatedAt": "2024-03-05T16:54:36.501Z",
  "networkType": "ethereum",
  "devdoc": {
    "kind": "dev",
    "methods": {},
    "version": 1
  },
  "userdoc": {
    "kind": "user",
    "methods": {},
    "version": 1
  }
}