{
  "contractName": "SupplyChain",
  "abi": [
    {
      "inputs": [],
      "stateMutability": "nonpayable",
      "type": "constructor"
    },
    {
      "inputs": [
        {
          "internalType": "uint256",
          "name": "",
          "type": "uint256"
        }
      ],
      "name": "Actions",
      "outputs": [
        {
          "internalType": "uint256",
          "name": "id",
          "type": "uint256"
        },
        {
          "internalType": "enum SupplyChain.ACTION_TYPE",
          "name": "actionType",
          "type": "uint8"
        },
        {
          "internalType": "uint256",
          "name": "duration",
          "type": "uint256"
        },
        {
          "internalType": "string",
          "name": "hashFileAction",
          "type": "string"
        }
      ],
      "stateMutability": "view",
      "type": "function",
      "constant": true
    },
    {
      "inputs": [
        {
          "internalType": "uint256",
          "name": "",
          "type": "uint256"
        }
      ],
      "name": "Actors",
      "outputs": [
        {
          "internalType": "uint256",
          "name": "id",
          "type": "uint256"
        },
        {
          "internalType": "address",
          "name": "addr",
          "type": "address"
        },
        {
          "internalType": "enum SupplyChain.ROLE",
          "name": "role",
          "type": "uint8"
        },
        {
          "internalType": "string",
          "name": "name",
          "type": "string"
        },
        {
          "internalType": "string",
          "name": "place",
          "type": "string"
        },
        {
          "internalType": "string",
          "name": "hashFileActor",
          "type": "string"
        }
      ],
      "stateMutability": "view",
      "type": "function",
      "constant": true
    },
    {
      "inputs": [
        {
          "internalType": "uint256",
          "name": "",
          "type": "uint256"
        }
      ],
      "name": "DisLotStock",
      "outputs": [
        {
          "internalType": "uint256",
          "name": "id",
          "type": "uint256"
        },
        {
          "internalType": "uint256",
          "name": "absolute_id",
          "type": "uint256"
        },
        {
          "internalType": "uint256",
          "name": "id_product",
          "type": "uint256"
        },
        {
          "internalType": "uint256",
          "name": "size",
          "type": "uint256"
        },
        {
          "internalType": "string",
          "name": "location",
          "type": "string"
        },
        {
          "internalType": "address",
          "name": "actor",
          "type": "address"
        }
      ],
      "stateMutability": "view",
      "type": "function",
      "constant": true
    },
    {
      "inputs": [
        {
          "internalType": "uint256",
          "name": "",
          "type": "uint256"
        }
      ],
      "name": "LotStock",
      "outputs": [
        {
          "internalType": "uint256",
          "name": "id",
          "type": "uint256"
        },
        {
          "internalType": "uint256",
          "name": "id_product",
          "type": "uint256"
        },
        {
          "internalType": "uint256",
          "name": "size",
          "type": "uint256"
        },
        {
          "internalType": "enum SupplyChain.STAGE",
          "name": "stage",
          "type": "uint8"
        },
        {
          "internalType": "bool",
          "name": "active",
          "type": "bool"
        }
      ],
      "stateMutability": "view",
      "type": "function",
      "constant": true
    },
    {
      "inputs": [
        {
          "internalType": "uint256",
          "name": "",
          "type": "uint256"
        }
      ],
      "name": "ManLotStock",
      "outputs": [
        {
          "internalType": "uint256",
          "name": "id",
          "type": "uint256"
        },
        {
          "internalType": "uint256",
          "name": "absolute_id",
          "type": "uint256"
        },
        {
          "internalType": "uint256",
          "name": "id_product",
          "type": "uint256"
        },
        {
          "internalType": "uint256",
          "name": "size",
          "type": "uint256"
        },
        {
          "internalType": "string",
          "name": "location",
          "type": "string"
        },
        {
          "internalType": "address",
          "name": "actor",
          "type": "address"
        }
      ],
      "stateMutability": "view",
      "type": "function",
      "constant": true
    },
    {
      "inputs": [],
      "name": "Owner",
      "outputs": [
        {
          "internalType": "address",
          "name": "",
          "type": "address"
        }
      ],
      "stateMutability": "view",
      "type": "function",
      "constant": true
    },
    {
      "inputs": [
        {
          "internalType": "uint256",
          "name": "",
          "type": "uint256"
        }
      ],
      "name": "ProductStock",
      "outputs": [
        {
          "internalType": "uint256",
          "name": "id",
          "type": "uint256"
        },
        {
          "internalType": "string",
          "name": "name",
          "type": "string"
        },
        {
          "internalType": "bool",
          "name": "simple",
          "type": "bool"
        },
        {
          "internalType": "bool",
          "name": "active",
          "type": "bool"
        }
      ],
      "stateMutability": "view",
      "type": "function",
      "constant": true
    },
    {
      "inputs": [
        {
          "internalType": "uint256",
          "name": "",
          "type": "uint256"
        }
      ],
      "name": "RetLotStock",
      "outputs": [
        {
          "internalType": "uint256",
          "name": "id",
          "type": "uint256"
        },
        {
          "internalType": "uint256",
          "name": "absolute_id",
          "type": "uint256"
        },
        {
          "internalType": "uint256",
          "name": "id_product",
          "type": "uint256"
        },
        {
          "internalType": "uint256",
          "name": "size",
          "type": "uint256"
        },
        {
          "internalType": "string",
          "name": "location",
          "type": "string"
        },
        {
          "internalType": "address",
          "name": "actor",
          "type": "address"
        }
      ],
      "stateMutability": "view",
      "type": "function",
      "constant": true
    },
    {
      "inputs": [
        {
          "internalType": "uint256",
          "name": "",
          "type": "uint256"
        }
      ],
      "name": "SupLotStock",
      "outputs": [
        {
          "internalType": "uint256",
          "name": "id",
          "type": "uint256"
        },
        {
          "internalType": "uint256",
          "name": "absolute_id",
          "type": "uint256"
        },
        {
          "internalType": "uint256",
          "name": "id_product",
          "type": "uint256"
        },
        {
          "internalType": "uint256",
          "name": "size",
          "type": "uint256"
        },
        {
          "internalType": "string",
          "name": "location",
          "type": "string"
        },
        {
          "internalType": "address",
          "name": "actor",
          "type": "address"
        }
      ],
      "stateMutability": "view",
      "type": "function",
      "constant": true
    },
    {
      "inputs": [],
      "name": "absoluteCtr",
      "outputs": [
        {
          "internalType": "uint256",
          "name": "",
          "type": "uint256"
        }
      ],
      "stateMutability": "view",
      "type": "function",
      "constant": true
    },
    {
      "inputs": [],
      "name": "actionCtr",
      "outputs": [
        {
          "internalType": "uint256",
          "name": "",
          "type": "uint256"
        }
      ],
      "stateMutability": "view",
      "type": "function",
      "constant": true
    },
    {
      "inputs": [],
      "name": "actorCtr",
      "outputs": [
        {
          "internalType": "uint256",
          "name": "",
          "type": "uint256"
        }
      ],
      "stateMutability": "view",
      "type": "function",
      "constant": true
    },
    {
      "inputs": [],
      "name": "disLotCtr",
      "outputs": [
        {
          "internalType": "uint256",
          "name": "",
          "type": "uint256"
        }
      ],
      "stateMutability": "view",
      "type": "function",
      "constant": true
    },
    {
      "inputs": [
        {
          "internalType": "uint256",
          "name": "",
          "type": "uint256"
        }
      ],
      "name": "elementCount",
      "outputs": [
        {
          "internalType": "uint256",
          "name": "",
          "type": "uint256"
        }
      ],
      "stateMutability": "view",
      "type": "function",
      "constant": true
    },
    {
      "inputs": [],
      "name": "manLotCtr",
      "outputs": [
        {
          "internalType": "uint256",
          "name": "",
          "type": "uint256"
        }
      ],
      "stateMutability": "view",
      "type": "function",
      "constant": true
    },
    {
      "inputs": [],
      "name": "productCtr",
      "outputs": [
        {
          "internalType": "uint256",
          "name": "",
          "type": "uint256"
        }
      ],
      "stateMutability": "view",
      "type": "function",
      "constant": true
    },
    {
      "inputs": [],
      "name": "retLotCtr",
      "outputs": [
        {
          "internalType": "uint256",
          "name": "",
          "type": "uint256"
        }
      ],
      "stateMutability": "view",
      "type": "function",
      "constant": true
    },
    {
      "inputs": [],
      "name": "supLotCtr",
      "outputs": [
        {
          "internalType": "uint256",
          "name": "",
          "type": "uint256"
        }
      ],
      "stateMutability": "view",
      "type": "function",
      "constant": true
    },
    {
      "inputs": [
        {
          "internalType": "address",
          "name": "",
          "type": "address"
        }
      ],
      "name": "userFiles",
      "outputs": [
        {
          "internalType": "string",
          "name": "",
          "type": "string"
        }
      ],
      "stateMutability": "view",
      "type": "function",
      "constant": true
    },
    {
      "inputs": [
        {
          "internalType": "string",
          "name": "file",
          "type": "string"
        }
      ],
      "name": "setFile",
      "outputs": [],
      "stateMutability": "nonpayable",
      "type": "function"
    },
    {
      "inputs": [
        {
          "internalType": "address",
          "name": "_address",
          "type": "address"
        },
        {
          "internalType": "enum SupplyChain.ROLE[]",
          "name": "_role",
          "type": "uint8[]"
        },
        {
          "internalType": "string",
          "name": "_name",
          "type": "string"
        },
        {
          "internalType": "string",
          "name": "_place",
          "type": "string"
        },
        {
          "internalType": "string",
          "name": "hashFileAcor",
          "type": "string"
        }
      ],
      "name": "addActor",
      "outputs": [],
      "stateMutability": "nonpayable",
      "type": "function"
    },
    {
      "inputs": [
        {
          "internalType": "string",
          "name": "_name",
          "type": "string"
        },
        {
          "internalType": "uint256[]",
          "name": "_ingredient",
          "type": "uint256[]"
        },
        {
          "internalType": "string[]",
          "name": "hashFileProduct",
          "type": "string[]"
        }
      ],
      "name": "addProduct",
      "outputs": [],
      "stateMutability": "nonpayable",
      "type": "function"
    },
    {
      "inputs": [
        {
          "internalType": "uint256",
          "name": "_id",
          "type": "uint256"
        }
      ],
      "name": "deleteProd",
      "outputs": [],
      "stateMutability": "nonpayable",
      "type": "function"
    },
    {
      "inputs": [
        {
          "internalType": "uint256",
          "name": "_prodId",
          "type": "uint256"
        },
        {
          "internalType": "uint256",
          "name": "_size",
          "type": "uint256"
        },
        {
          "internalType": "string",
          "name": "_location",
          "type": "string"
        }
      ],
      "name": "addLot",
      "outputs": [],
      "stateMutability": "nonpayable",
      "type": "function"
    },
    {
      "inputs": [
        {
          "internalType": "uint256[]",
          "name": "_source",
          "type": "uint256[]"
        },
        {
          "internalType": "string",
          "name": "_location",
          "type": "string"
        },
        {
          "internalType": "enum SupplyChain.ROLE",
          "name": "_role",
          "type": "uint8"
        },
        {
          "internalType": "uint256",
          "name": "_duration",
          "type": "uint256"
        },
        {
          "internalType": "string",
          "name": "hashFileAction",
          "type": "string"
        }
      ],
      "name": "baseActions",
      "outputs": [],
      "stateMutability": "nonpayable",
      "type": "function"
    },
    {
      "inputs": [
        {
          "internalType": "uint256",
          "name": "_absoluteId",
          "type": "uint256"
        }
      ],
      "name": "sellLot",
      "outputs": [],
      "stateMutability": "nonpayable",
      "type": "function"
    },
    {
      "inputs": [
        {
          "internalType": "uint256",
          "name": "_absoluteId",
          "type": "uint256"
        }
      ],
      "name": "destruction",
      "outputs": [],
      "stateMutability": "nonpayable",
      "type": "function"
    },
    {
      "inputs": [
        {
          "internalType": "uint256[]",
          "name": "_source",
          "type": "uint256[]"
        },
        {
          "internalType": "string",
          "name": "_location",
          "type": "string"
        },
        {
          "internalType": "uint256",
          "name": "_duration",
          "type": "uint256"
        },
        {
          "internalType": "string",
          "name": "hashFileAction",
          "type": "string"
        }
      ],
      "name": "transform",
      "outputs": [],
      "stateMutability": "nonpayable",
      "type": "function"
    },
    {
      "inputs": [
        {
          "internalType": "uint256[]",
          "name": "_absoluteIds",
          "type": "uint256[]"
        },
        {
          "internalType": "string",
          "name": "_location",
          "type": "string"
        },
        {
          "internalType": "uint256",
          "name": "_duration",
          "type": "uint256"
        },
        {
          "internalType": "string",
          "name": "hashFileAction",
          "type": "string"
        }
      ],
      "name": "integrate",
      "outputs": [],
      "stateMutability": "nonpayable",
      "type": "function"
    },
    {
      "inputs": [
        {
          "internalType": "uint256",
          "name": "_absLotId",
          "type": "uint256"
        },
        {
          "internalType": "uint256[]",
          "name": "_sizes",
          "type": "uint256[]"
        },
        {
          "internalType": "string",
          "name": "_location",
          "type": "string"
        },
        {
          "internalType": "uint256",
          "name": "_duration",
          "type": "uint256"
        },
        {
          "internalType": "string",
          "name": "hashFileAction",
          "type": "string"
        }
      ],
      "name": "division",
      "outputs": [],
      "stateMutability": "nonpayable",
      "type": "function"
    },
    {
      "inputs": [
        {
          "internalType": "uint256",
          "name": "_productId",
          "type": "uint256"
        }
      ],
      "name": "getProductIngredient",
      "outputs": [
        {
          "internalType": "uint256[]",
          "name": "",
          "type": "uint256[]"
        }
      ],
      "stateMutability": "view",
      "type": "function",
      "constant": true
    },
    {
      "inputs": [
        {
          "internalType": "uint256",
          "name": "_productId",
          "type": "uint256"
        }
      ],
      "name": "getProductHahs",
      "outputs": [
        {
          "internalType": "string[]",
          "name": "",
          "type": "string[]"
        }
      ],
      "stateMutability": "view",
      "type": "function",
      "constant": true
    },
    {
      "inputs": [
        {
          "internalType": "uint256",
          "name": "_actionId",
          "type": "uint256"
        }
      ],
      "name": "getSourceAction",
      "outputs": [
        {
          "internalType": "uint256[]",
          "name": "",
          "type": "uint256[]"
        }
      ],
      "stateMutability": "view",
      "type": "function",
      "constant": true
    },
    {
      "inputs": [
        {
          "internalType": "uint256",
          "name": "_actionId",
          "type": "uint256"
        }
      ],
      "name": "getSinkAction",
      "outputs": [
        {
          "internalType": "uint256[]",
          "name": "",
          "type": "uint256[]"
        }
      ],
      "stateMutability": "view",
      "type": "function",
      "constant": true
    }
  ],
  "bytecode": "0x608060405234801561001057600080fd5b5060008054600160a060020a03191633179055614713806100326000396000f3fe608060405234801561001057600080fd5b5060043610610223576000357c01000000000000000000000000000000000000000000000000000000009004806389b8a13c11610137578063b4272ce9116100ca578063df53feef11610099578063df53feef146104ee578063e14e6eec146104f7578063e423c15814610517578063f00f78231461052a578063f0e6187e1461053357600080fd5b8063b4272ce914610477578063b4a99a4e1461049a578063b7b3424e146104c5578063cd7a97e9146104ce57600080fd5b8063a26d7aa611610106578063a26d7aa614610432578063aa9a164514610445578063aaea34aa1461044e578063b0b190721461045757600080fd5b806389b8a13c146103e657806390a2daff146103f95780639421347d1461040c578063a1fdc8851461041f57600080fd5b806359ae258a116101ba57806381a0959f1161018957806381a0959f1461037f57806383175b4414610388578063841215ef146103ad578063866925b1146103c057806388721b03146103d357600080fd5b806359ae258a146102f45780635afc04781461030757806373029bdd146103595780637f004f001461036c57600080fd5b8063459db0bc116101f6578063459db0bc1461029057806347e1e1441461029957806348f2dd97146102be5780635573d8b2146102d157600080fd5b806317e909b4146102285780632d887281146102515780633ff74d501461026857806343abd2581461027d575b600080fd5b61023b610236366004613cca565b610546565b6040516102489190613ce3565b60405180910390f35b61025a60055481565b604051908152602001610248565b61027b610276366004613e6d565b6105ab565b005b61027b61028b366004613cca565b610a5d565b61025a60075481565b6102ac6102a7366004613cca565b610a90565b60405161024896959493929190613f4f565b61027b6102cc366004613cca565b610b58565b6102e46102df366004613cca565b611659565b6040516102489493929190613f96565b61027b610302366004613fc7565b611710565b610348610315366004613cca565b600a6020526000908152604090208054600182015460028301546003909301549192909160ff8082169161010090041685565b604051610248959493929190614072565b61027b6103673660046140c3565b612036565b6102ac61037a366004613cca565b612a63565b61025a60045481565b61039b610396366004613cca565b612a99565b6040516102489695949392919061412f565b61027b6103bb366004613cca565b612c89565b61027b6103ce3660046141b7565b612d42565b6102ac6103e1366004613cca565b612ec3565b61027b6103f43660046142c3565b612ef9565b6102ac610407366004613cca565b613058565b61023b61041a366004613cca565b61308e565b61023b61042d366004613cca565b6130f1565b61027b610440366004613fc7565b613154565b61025a60015481565b61025a60025481565b61046a610465366004614313565b61365c565b6040516102489190614335565b61048a610485366004613cca565b6136f6565b6040516102489493929190614348565b6000546104ad90600160a060020a031681565b604051600160a060020a039091168152602001610248565b61025a60085481565b6104e16104dc366004613cca565b6137ad565b6040516102489190614387565b61025a60035481565b61025a610505366004613cca565b60116020526000908152604090205481565b61027b6105253660046143e8565b61389c565b61025a60065481565b61027b610541366004614425565b6138b9565b6000818152600f602090815260409182902060030180548351818402810184019094528084526060939283018282801561059f57602002820191906000526020600020905b81548152602001906001019080831161058b575b50505050509050919050565b60088054600091826105bc83614533565b9091555050604080516001808252818301909252600091602080830190803683370190505090506000865167ffffffffffffffff8111156105ff576105ff613d27565b604051908082528060200260200182016040528015610628578160200160208202803683370190505b50905060005b8751811015610670578781815181106106495761064961454c565b60200260200101518461065c9190614565565b93508061066881614533565b91505061062e565b506000888152600a6020526040902060020154831461068e57600080fd5b60005b6005548111610751576000818152600c602090815260408083206001908101548452600a90925290912060030154610100900460ff1615151480156106e657506000818152600c602052604090206001015489145b1561073f576000818152600c6020526040902060050154600160a060020a0316331461071157600080fd5b6000818152600c60205260408120548451909185916107325761073261454c565b6020026020010181815250505b8061074981614533565b915050610691565b5060005b8751811015610969576005805490600061076e83614533565b90915550506003805490600061078383614533565b919050555060055482828151811061079d5761079d61454c565b6020026020010181815250506040518060c0016040528060055481526020016003548152602001600a60008c81526020019081526020016000206001015481526020018983815181106107f2576107f261454c565b60209081029190910181015182528181018a9052336040928301526005546000908152600c82528290208351815590830151600182015590820151600282015560608201516003820155608082015160048201906108509082614600565b5060a0918201516005919091018054600160a060020a031916600160a060020a03909216919091179055604080519182018152600354825260008b8152600a60209081529082902060010154908301528951908201908a90849081106108b8576108b861454c565b60200260200101518152602001600160048111156108d8576108d8614059565b815260016020918201819052600380546000908152600a84526040908190208551815593850151848401558401516002840155606084015190830180549192909160ff19169083600481111561093057610930614059565b021790555060809190910151600390910180549115156101000261ff00199092169190911790558061096181614533565b915050610755565b506040805160c0810190915260085481526020810160068152602080820185905260408083018590526060830189905260809092018790526008546000908152600f825291909120825181559082015160018083018054909160ff19909116908360068111156109db576109db614059565b0217905550604082015180516109fb916002840191602090910190613ba0565b5060608201518051610a17916003840191602090910190613ba0565b506080820151600482015560a08201516005820190610a369082614600565b50505060009788525050600a60205250506040909320600301805461ff0019169055505050565b600054600160a060020a03163314610a7457600080fd5b6000908152600960205260409020600201805461ff0019169055565b600c60205260009081526040902080546001820154600283015460038401546004850180549495939492939192610ac690614578565b80601f0160208091040260200160405190810160405280929190818152602001828054610af290614578565b8015610b3f5780601f10610b1457610100808354040283529160200191610b3f565b820191906000526020600020905b815481529060010190602001808311610b2257829003601f168201915b50505060059093015491925050600160a060020a031686565b60046000828152600a602052604090206003015460ff166004811115610b8057610b80614059565b03610b8a57600080fd5b6000818152600a602052604081206003015460ff166004811115610bb057610bb0614059565b10610c145760005b6004548111610c12576000818152600b6020526040902060010154829003610c00576000818152600b6020526040902060050154600160a060020a03163314610c0057600080fd5b80610c0a81614533565b915050610bb8565b505b60016000828152600a602052604090206003015460ff166004811115610c3c57610c3c614059565b10610ca05760005b6005548111610c9e576000818152600c6020526040902060010154829003610c8c576000818152600c6020526040902060050154600160a060020a03163314610c8c57600080fd5b80610c9681614533565b915050610c44565b505b60026000828152600a602052604090206003015460ff166004811115610cc857610cc8614059565b10610d2c5760005b6006548111610d2a576000818152600d6020526040902060010154829003610d18576000818152600d6020526040902060050154600160a060020a03163314610d1857600080fd5b80610d2281614533565b915050610cd0565b505b60036000828152600a602052604090206003015460ff166004811115610d5457610d54614059565b10610db85760005b6007548111610db6576000818152600e6020526040902060010154829003610da4576000818152600d6020526040902060050154600160a060020a03163314610da457600080fd5b80610dae81614533565b915050610d5c565b505b60015b6008548111611378576000818152600f602052604081206001015460ff166006811115610dea57610dea614059565b1480610e1b575060046000828152600f602052604090206001015460ff166006811115610e1957610e19614059565b145b80610e4b575060036000828152600f602052604090206001015460ff166006811115610e4957610e49614059565b145b15610ef85781600c6000600f6000858152602001908152602001600020600301600081548110610e7d57610e7d61454c565b906000526020600020015481526020019081526020016000206001015403610ef3576000818152600f6020526040812081815560018101805460ff1916905590610eca6002830182613beb565b610ed8600383016000613beb565b6004820160009055600582016000610ef09190613c0c565b50505b611366565b60066000828152600f602052604090206001015460ff166006811115610f2057610f20614059565b0361109d5781600c6000600f6000858152602001908152602001600020600201600081548110610f5257610f5261454c565b906000526020600020015481526020019081526020016000206001015403610fc8576000818152600f6020526040812081815560018101805460ff1916905590610f9f6002830182613beb565b610fad600383016000613beb565b6004820160009055600582016000610fc59190613c0c565b50505b60005b6000828152600f602052604090206003015481116110975782600c6000600f6000868152602001908152602001600020600301848154811061100f5761100f61454c565b906000526020600020015481526020019081526020016000206001015403611085576000828152600f6020526040812081815560018101805460ff191690559061105c6002830182613beb565b61106a600383016000613beb565b60048201600090556005820160006110829190613c0c565b50505b8061108f81614533565b915050610fcb565b50611366565b60056000828152600f602052604090206001015460ff1660068111156110c5576110c5614059565b0361123c5781600c6000600f60008581526020019081526020016000206003016000815481106110f7576110f761454c565b90600052602060002001548152602001908152602001600020600101540361116d576000818152600f6020526040812081815560018101805460ff19169055906111446002830182613beb565b611152600383016000613beb565b600482016000905560058201600061116a9190613c0c565b50505b60005b6000828152600f602052604090206002015481116110975782600c6000600f600086815260200190815260200160002060020184815481106111b4576111b461454c565b90600052602060002001548152602001908152602001600020600101540361122a576000828152600f6020526040812081815560018101805460ff19169055906112016002830182613beb565b61120f600383016000613beb565b60048201600090556005820160006112279190613c0c565b50505b8061123481614533565b915050611170565b60016000828152600f602052604090206001015460ff16600681111561126457611264614059565b036112965781600d6000600f6000858152602001908152602001600020600301600081548110610e7d57610e7d61454c565b60026000828152600f602052604090206001015460ff1660068111156112be576112be614059565b036113665781600e6000600f60008581526020019081526020016000206003016000815481106112f0576112f061454c565b906000526020600020015481526020019081526020016000206001015403611366576000818152600f6020526040812081815560018101805460ff191690559061133d6002830182613beb565b61134b600383016000613beb565b60048201600090556005820160006113639190613c0c565b50505b8061137081614533565b915050610dbb565b506000818152600a602052604081206003015460ff16600481111561139f5761139f614059565b106114245760005b6004548111611422576000818152600b6020526040902060010154829003611410576000818152600b60205260408120818155600181018290556002810182905560038101829055906113fd6004830182613c0c565b506005018054600160a060020a03191690555b8061141a81614533565b9150506113a7565b505b60016000828152600a602052604090206003015460ff16600481111561144c5761144c614059565b106114d15760005b60055481116114cf576000818152600c60205260409020600101548290036114bd576000818152600c60205260408120818155600181018290556002810182905560038101829055906114aa6004830182613c0c565b506005018054600160a060020a03191690555b806114c781614533565b915050611454565b505b60026000828152600a602052604090206003015460ff1660048111156114f9576114f9614059565b1061157e5760005b600654811161157c576000818152600d602052604090206001015482900361156a576000818152600d60205260408120818155600181018290556002810182905560038101829055906115576004830182613c0c565b506005018054600160a060020a03191690555b8061157481614533565b915050611501565b505b60036000828152600a602052604090206003015460ff1660048111156115a6576115a6614059565b1061162b5760005b6007548111611629576000818152600e6020526040902060010154829003611617576000818152600e60205260408120818155600181018290556002810182905560038101829055906116046004830182613c0c565b506005018054600160a060020a03191690555b8061162181614533565b9150506115ae565b505b6000908152600a60205260408120818155600181018290556002810191909155600301805461ffff19169055565b6009602052600090815260409020805460018201805491929161167b90614578565b80601f01602080910402602001604051908101604052809291908181526020018280546116a790614578565b80156116f45780601f106116c9576101008083540402835291602001916116f4565b820191906000526020600020905b8154815290600101906020018083116116d757829003601f168201915b5050506002909301549192505060ff8082169161010090041684565b600060019050600080600090506000600a6000896000815181106117365761173661454c565b602002602001015181526020019081526020016000206002015490506000885167ffffffffffffffff81111561176e5761176e613d27565b604051908082528060200260200182016040528015611797578160200160208202803683370190505b50604080516001808252818301909252919250600091906020808301908036833701905050905060008a5167ffffffffffffffff8111156117da576117da613d27565b604051908082528060200260200182016040528015611803578160200160208202803683370190505b50905060015b8b5181101561186b57600a60008d6000815181106118295761182961454c565b6020026020010151815260200190815260200160002060030160019054906101000a900460ff1661185957600080fd5b8061186381614533565b915050611809565b50600a60008c6000815181106118835761188361454c565b6020026020010151815260200190815260200160002060010154836000815181106118b0576118b061454c565b60200260200101818152505060005b60055481116119b55760005b8c518110156119a2578c81815181106118e6576118e661454c565b6020026020010151600c60008481526020019081526020016000206001015414801561194b5750600a60008e83815181106119235761192361454c565b6020026020010151815260200190815260200160002060030160019054906101000a900460ff165b15611990576000828152600c602052604090205483518490899081106119735761197361454c565b60209081029190910101528661198881614533565b9750506119a2565b8061199a81614533565b9150506118cb565b50806119ad81614533565b9150506118bf565b5060005b8b51811015611a1d576000600a60008e84815181106119da576119da61454c565b6020026020010151815260200190815260200160002060030160016101000a81548160ff0219169083151502179055508080611a1590614533565b9150506119b9565b5060015b8b51811015611b3257600a60008d600081518110611a4157611a4161454c565b6020026020010151815260200190815260200160002060010154600a60008e8481518110611a7157611a7161454c565b602002602001015181526020019081526020016000206001015414611a9557600097505b600a60008d8381518110611aab57611aab61454c565b6020026020010151815260200190815260200160002060010154848281518110611ad757611ad761454c565b602002602001018181525050600a60008d8381518110611af957611af961454c565b602002602001015181526020019081526020016000206002015485611b1e9190614565565b945080611b2a81614533565b915050611a21565b5060058054906000611b4383614533565b909155505060038054906000611b5883614533565b909155505060088054906000611b6d83614533565b919050555060055482600081518110611b8857611b8861454c565b6020026020010181815250508615611d6d576040518060c0016040528060055481526020016003548152602001600a60008e600081518110611bcc57611bcc61454c565b602002602001015181526020019081526020016000206001015481526020018581526020018b815260200133600160a060020a0316815250600c60006005548152602001908152602001600020600082015181600001556020820151816001015560408201518160020155606082015181600301556080820151816004019081611c569190614600565b5060a08201518160050160006101000a815481600160a060020a030219169083600160a060020a031602179055509050506040518060a001604052806003548152602001600a60008e600081518110611cb157611cb161454c565b6020026020010151815260200190815260200160002060010154815260200185815260200160016004811115611ce957611ce9614059565b815260016020918201819052600380546000908152600a84526040908190208551815593850151848401558401516002840155606084015190830180549192909160ff191690836004811115611d4157611d41614059565b021790555060809190910151600390910180549115156101000261ff0019909216919091179055611f5f565b60005b6002548111611de55760008181526009602052604090206002015460ff16158015611db85750600081815260096020526040902054611db890611db29061308e565b856139be565b15611dd3576000818152600960205260409020546001985096505b80611ddd81614533565b915050611d70565b5086611df057600080fd5b6040518060c0016040528060055481526020016003548152602001600960008981526020019081526020016000206000015481526020018581526020018b815260200133600160a060020a0316815250600c60006005548152602001908152602001600020600082015181600001556020820151816001015560408201518160020155606082015181600301556080820151816004019081611e929190614600565b5060a0918201516005919091018054600160a060020a031916600160a060020a039092169190911790556040805191820181526003805480845260008a815260096020908152848220548187019081528686018b815260016060890181815260808a01829052958552600a909352959092208651815591518282015593516002820155905191810180549193909160ff191690836004811115611f3757611f37614059565b021790555060809190910151600390910180549115156101000261ff00199092169190911790555b6040805160c0810182526008548082526005602080840191825283850186905260608401879052608084018e905260a084018d90526000928352600f905292902081518155915160018084018054939493909160ff1990911690836006811115611fcb57611fcb614059565b021790555060408201518051611feb916002840191602090910190613ba0565b5060608201518051612007916003840191602090910190613ba0565b506080820151600482015560a082015160058201906120269082614600565b5050505050505050505050505050565b826000805b60015481116120ed57600081815260106020526040902060010154600160a060020a0316331480156120ba575082600381111561207a5761207a614059565b60008281526010602052604090206001015474010000000000000000000000000000000000000000900460ff1660038111156120b8576120b8614059565b145b80156120d15750600054600160a060020a03163314155b156120db57600191505b806120e581614533565b91505061203b565b50806120f857600080fd5b6008805490600061210883614533565b909155505060408051600180825281830190925260009160208083019080368337019050509050600186600381111561214357612143614059565b0361247f576000600a6000600b60008c6000815181106121655761216561454c565b6020026020010151815260200190815260200160002060010154815260200190815260200160002060030160009054906101000a900460ff1660048111156121af576121af614059565b146121b957600080fd5b600580549060006121c983614533565b9190505550600554816000815181106121e4576121e461454c565b6020026020010181815250506040518060c001604052806005548152602001600b60008b60008151811061221a5761221a61454c565b60200260200101518152602001908152602001600020600101548152602001600b60008b6000815181106122505761225061454c565b60200260200101518152602001908152602001600020600201548152602001600b60008b6000815181106122865761228661454c565b6020026020010151815260200190815260200160002060030154815260200188815260200133600160a060020a0316815250600c6000600554815260200190815260200160002060008201518160000155602082015181600101556040820151816002015560608201518160030155608082015181600401908161230a9190614600565b5060a08201518160050160006101000a815481600160a060020a030219169083600160a060020a031602179055509050506001600a6000600b60008c6000815181106123585761235861454c565b6020026020010151815260200190815260200160002060010154815260200190815260200160002060030160006101000a81548160ff021916908360048111156123a4576123a4614059565b02179055506040805160c0810190915260085481526020810160005b815260208082018b905260408083018590526060830189905260809092018790526008546000908152600f825291909120825181559082015160018083018054909160ff199091169083600681111561241b5761241b614059565b02179055506040820151805161243b916002840191602090910190613ba0565b5060608201518051612457916003840191602090910190613ba0565b506080820151600482015560a082015160058201906124769082614600565b50905050612a59565b600286600381111561249357612493614059565b03612714576001600a6000600c60008c6000815181106124b5576124b561454c565b6020026020010151815260200190815260200160002060010154815260200190815260200160002060030160009054906101000a900460ff1660048111156124ff576124ff614059565b1461250957600080fd5b6006805490600061251983614533565b9190505550600654816000815181106125345761253461454c565b6020026020010181815250506040518060c001604052806006548152602001600c60008b60008151811061256a5761256a61454c565b60200260200101518152602001908152602001600020600101548152602001600c60008b6000815181106125a0576125a061454c565b60200260200101518152602001908152602001600020600201548152602001600c60008b6000815181106125d6576125d661454c565b6020026020010151815260200190815260200160002060030154815260200188815260200133600160a060020a0316815250600d6000600654815260200190815260200160002060008201518160000155602082015181600101556040820151816002015560608201518160030155608082015181600401908161265a9190614600565b5060a08201518160050160006101000a815481600160a060020a030219169083600160a060020a031602179055509050506002600a6000600c60008c6000815181106126a8576126a861454c565b6020026020010151815260200190815260200160002060010154815260200190815260200160002060030160006101000a81548160ff021916908360048111156126f4576126f4614059565b02179055506040805160c0810190915260085481526020810160016123c0565b600386600381111561272857612728614059565b03612a59576002600a6000600d60008c60008151811061274a5761274a61454c565b6020026020010151815260200190815260200160002060010154815260200190815260200160002060030160009054906101000a900460ff16600481111561279457612794614059565b1461279e57600080fd5b600780549060006127ae83614533565b9190505550600754816000815181106127c9576127c961454c565b6020026020010181815250506040518060c001604052806007548152602001600d60008b6000815181106127ff576127ff61454c565b60200260200101518152602001908152602001600020600101548152602001600d60008b6000815181106128355761283561454c565b60200260200101518152602001908152602001600020600201548152602001600d60008b60008151811061286b5761286b61454c565b6020026020010151815260200190815260200160002060030154815260200188815260200133600160a060020a0316815250600e600060075481526020019081526020016000206000820151816000015560208201518160010155604082015181600201556060820151816003015560808201518160040190816128ef9190614600565b5060a08201518160050160006101000a815481600160a060020a030219169083600160a060020a031602179055509050506003600a6000600d60008c60008151811061293d5761293d61454c565b6020026020010151815260200190815260200160002060010154815260200190815260200160002060030160006101000a81548160ff0219169083600481111561298957612989614059565b02179055506040805160c081018252600854808252600260208084019182528385018d905260608401869052608084018a905260a084018990526000928352600f905292902081518155915160018084018054939493909160ff19909116908360068111156129fa576129fa614059565b021790555060408201518051612a1a916002840191602090910190613ba0565b5060608201518051612a36916003840191602090910190613ba0565b506080820151600482015560a08201516005820190612a559082614600565b5050505b5050505050505050565b600e60205260009081526040902080546001820154600283015460038401546004850180549495939492939192610ac690614578565b6010602052600090815260409020805460018201546002830180549293600160a060020a038316937401000000000000000000000000000000000000000090930460ff1692909190612aea90614578565b80601f0160208091040260200160405190810160405280929190818152602001828054612b1690614578565b8015612b635780601f10612b3857610100808354040283529160200191612b63565b820191906000526020600020905b815481529060010190602001808311612b4657829003601f168201915b505050505090806003018054612b7890614578565b80601f0160208091040260200160405190810160405280929190818152602001828054612ba490614578565b8015612bf15780601f10612bc657610100808354040283529160200191612bf1565b820191906000526020600020905b815481529060010190602001808311612bd457829003601f168201915b505050505090806004018054612c0690614578565b80601f0160208091040260200160405190810160405280929190818152602001828054612c3290614578565b8015612c7f5780601f10612c5457610100808354040283529160200191612c7f565b820191906000526020600020905b815481529060010190602001808311612c6257829003601f168201915b5050505050905086565b6000805b6001548111612d1857600081815260106020526040902060010154600160a060020a031633148015612cfc5750600360008281526010602052604090206001015474010000000000000000000000000000000000000000900460ff166003811115612cfa57612cfa614059565b145b15612d0657600191505b80612d1081614533565b915050612c8d565b5080612d2357600080fd5b506000908152600a60205260409020600301805460ff19166004179055565b600054600160a060020a03163314612d5957600080fd5b60005b8451811015612ebb5760018054906000612d7583614533565b91905055506040518060c00160405280600154815260200187600160a060020a03168152602001868381518110612dae57612dae61454c565b60200260200101516003811115612dc757612dc7614059565b81526020808201879052604080830187905260609092018590526001805460009081526010835283902084518155918401519082018054600160a060020a03909216600160a060020a0319831681178255938501519293909174ffffffffffffffffffffffffffffffffffffffffff19161774010000000000000000000000000000000000000000836003811115612e6157612e61614059565b021790555060608201516002820190612e7a9082614600565b5060808201516003820190612e8f9082614600565b5060a08201516004820190612ea49082614600565b509050508080612eb390614533565b915050612d5c565b505050505050565b600b60205260009081526040902080546001820154600283015460038401546004850180549495939492939192610ac690614578565b60038054906000612f0983614533565b909155505060048054906000612f1e83614533565b90915550506040805160a081018252600380548083526020808401888152848601888152600060608701818152600160808901819052958252600a909452969096208551815590518184015594516002860155519184018054939493909160ff1990911690836004811115612f9557612f95614059565b0217905550608091820151600391820180549115156101000261ff00199092169190911790556040805160c08101825260048054808352845460208085019182528486018b8152606086018b81529886018a81523360a08801526000948552600b90925295909220845181559051600182015593516002850155945193830193909355925190918201906130299082614600565b5060a0919091015160059091018054600160a060020a031916600160a060020a03909216919091179055505050565b600d60205260009081526040902080546001820154600283015460038401546004850180549495939492939192610ac690614578565b60008181526009602090815260409182902060030180548351818402810184019094528084526060939283018282801561059f576020028201919060005260206000209081548152602001906001019080831161058b5750505050509050919050565b6000818152600f602090815260409182902060020180548351818402810184019094528084526060939283018282801561059f576020028201919060005260206000209081548152602001906001019080831161058b5750505050509050919050565b6040805160018082528183019092526000918291906020808301908036833701905050905060005b6005548111613241576000818152600c60209081526040808320600101548352600a909152902060030154610100900460ff1680156132005750600c6000886000815181106131cd576131cd61454c565b6020026020010151815260200190815260200160002060010154600c600083815260200190815260200160002060010154145b801561322557506000818152600c6020526040902060050154600160a060020a031633145b1561322f57600192505b8061323981614533565b91505061317c565b506000600a6000600c60008a60008151811061325f5761325f61454c565b6020026020010151815260200190815260200160002060010154815260200190815260200160002060030160016101000a81548160ff021916908315150217905550600860008154809291906132b490614533565b9091555050600580549060006132c983614533565b9091555050600380549060006132de83614533565b9190505550600554816000815181106132f9576132f961454c565b6020026020010181815250506040518060a001604052806003548152602001600a6000600c60008b6000815181106133335761333361454c565b60200260200101518152602001908152602001600020600101548152602001908152602001600020600101548152602001600a6000600c60008b60008151811061337f5761337f61454c565b60200260200101518152602001908152602001600020600101548152602001908152602001600020600201548152602001600160048111156133c3576133c3614059565b815260016020918201819052600380546000908152600a84526040908190208551815593850151848401558401516002840155606084015190830180549192909160ff19169083600481111561341b5761341b614059565b021790555060808201518160030160016101000a81548160ff0219169083151502179055509050506040518060c0016040528060055481526020016003548152602001600a6000600c60008b6000815181106134795761347961454c565b60200260200101518152602001908152602001600020600101548152602001908152602001600020600101548152602001600a6000600c60008b6000815181106134c5576134c561454c565b6020026020010151815260200190815260200160002060010154815260200190815260200160002060020154815260200186815260200133600160a060020a0316815250600c6000600554815260200190815260200160002060008201518160000155602082015181600101556040820151816002015560608201518160030155608082015181600401908161355b9190614600565b5060a0919091015160059091018054600160a060020a031916600160a060020a039092169190911790556040805160c0810190915260085481526020810160038152602080820189905260408083018590526060830188905260809092018690526008546000908152600f825291909120825181559082015160018083018054909160ff19909116908360068111156135f6576135f6614059565b021790555060408201518051613616916002840191602090910190613ba0565b5060608201518051613632916003840191602090910190613ba0565b506080820151600482015560a082015160058201906136519082614600565b505050505050505050565b6012602052600090815260409020805461367590614578565b80601f01602080910402602001604051908101604052809291908181526020018280546136a190614578565b80156136ee5780601f106136c3576101008083540402835291602001916136ee565b820191906000526020600020905b8154815290600101906020018083116136d157829003601f168201915b505050505081565b600f602052600090815260409020805460018201546004830154600584018054939460ff9093169391929161372a90614578565b80601f016020809104026020016040519081016040528092919081815260200182805461375690614578565b80156137a35780601f10613778576101008083540402835291602001916137a3565b820191906000526020600020905b81548152906001019060200180831161378657829003601f168201915b5050505050905084565b606060096000838152602001908152602001600020600401805480602002602001604051908101604052809291908181526020016000905b8282101561389157838290600052602060002001805461380490614578565b80601f016020809104026020016040519081016040528092919081815260200182805461383090614578565b801561387d5780601f106138525761010080835404028352916020019161387d565b820191906000526020600020905b81548152906001019060200180831161386057829003601f168201915b5050505050815260200190600101906137e5565b505050509050919050565b3360009081526012602052604090206138b58282614600565b5050565b600054600160a060020a031633146138d057600080fd5b600280549060006138e083614533565b90915550508151600190156138f3575060005b6040805160c0810182526002548082526020808301888152851515848601526001606085018190526080850189905260a0850188905260009384526009909252939091208251815592519192919082019061394e9082614600565b506040820151600282018054606085015115156101000261ff00199315159390931661ffff199091161791909117905560808201518051613999916003840191602090910190613ba0565b5060a082015180516139b5916004840191602090910190613c46565b50505050505050565b6000805b8351811015613a10576000601160008684815181106139e3576139e361454c565b60200260200101518152602001908152602001600020819055508080613a0890614533565b9150506139c2565b5060005b8251811015613a6257600060116000858481518110613a3557613a3561454c565b60200260200101518152602001908152602001600020819055508080613a5a90614533565b915050613a14565b508151835114613a7457506000613b9a565b60005b8351811015613ad55760116000858381518110613a9657613a9661454c565b602002602001015181526020019081526020016000206000815480929190613abd90614533565b91905055508080613acd90614533565b915050613a77565b5060005b8251811015613b375760116000848381518110613af857613af861454c565b602002602001015181526020019081526020016000206000815480929190613b1f906146c6565b91905055508080613b2f90614533565b915050613ad9565b5060005b8351811015613b945760116000858381518110613b5a57613b5a61454c565b6020026020010151815260200190815260200160002054600014613b82576000915050613b9a565b80613b8c81614533565b915050613b3b565b50600190505b92915050565b828054828255906000526020600020908101928215613bdb579160200282015b82811115613bdb578251825591602001919060010190613bc0565b50613be7929150613c98565b5090565b5080546000825590600052602060002090810190613c099190613c98565b50565b508054613c1890614578565b6000825580601f10613c28575050565b601f016020900490600052602060002090810190613c099190613c98565b828054828255906000526020600020908101928215613c8c579160200282015b82811115613c8c5782518290613c7c9082614600565b5091602001919060010190613c66565b50613be7929150613cad565b5b80821115613be75760008155600101613c99565b80821115613be7576000613cc18282613c0c565b50600101613cad565b600060208284031215613cdc57600080fd5b5035919050565b6020808252825182820181905260009190848201906040850190845b81811015613d1b57835183529284019291840191600101613cff565b50909695505050505050565b60e060020a634e487b7102600052604160045260246000fd5b604051601f8201601f1916810167ffffffffffffffff81118282101715613d6957613d69613d27565b604052919050565b600067ffffffffffffffff821115613d8b57613d8b613d27565b5060209081020190565b600082601f830112613da657600080fd5b81356020613dbb613db683613d71565b613d40565b82815291810284018101918181019086841115613dd757600080fd5b8286015b84811015613df25780358352918301918301613ddb565b509695505050505050565b600082601f830112613e0e57600080fd5b813567ffffffffffffffff811115613e2857613e28613d27565b613e3b601f8201601f1916602001613d40565b818152846020838601011115613e5057600080fd5b816020850160208301376000918101602001919091529392505050565b600080600080600060a08688031215613e8557600080fd5b85359450602086013567ffffffffffffffff80821115613ea457600080fd5b613eb089838a01613d95565b95506040880135915080821115613ec657600080fd5b613ed289838a01613dfd565b9450606088013593506080880135915080821115613eef57600080fd5b50613efc88828901613dfd565b9150509295509295909350565b6000815180845260005b81811015613f2f57602081850181015186830182015201613f13565b506000602082860101526020601f19601f83011685010191505092915050565b86815285602082015284604082015283606082015260c060808201526000613f7a60c0830185613f09565b9050600160a060020a03831660a0830152979650505050505050565b848152608060208201526000613faf6080830186613f09565b93151560408301525090151560609091015292915050565b60008060008060808587031215613fdd57600080fd5b843567ffffffffffffffff80821115613ff557600080fd5b61400188838901613d95565b9550602087013591508082111561401757600080fd5b61402388838901613dfd565b945060408701359350606087013591508082111561404057600080fd5b5061404d87828801613dfd565b91505092959194509250565b60e060020a634e487b7102600052602160045260246000fd5b858152602081018590526040810184905260a081016005841061409757614097614059565b83606083015282151560808301529695505050505050565b8035600481106140be57600080fd5b919050565b600080600080600060a086880312156140db57600080fd5b853567ffffffffffffffff808211156140f357600080fd5b6140ff89838a01613d95565b9650602088013591508082111561411557600080fd5b61412189838a01613dfd565b9550613ed2604089016140af565b868152600160a060020a038616602082015260006004861061415357614153614059565b85604083015260c0606083015261416d60c0830186613f09565b828103608084015261417f8186613f09565b905082810360a08401526141938185613f09565b9998505050505050505050565b8035600160a060020a03811681146140be57600080fd5b600080600080600060a086880312156141cf57600080fd5b6141d8866141a0565b945060208087013567ffffffffffffffff808211156141f657600080fd5b818901915089601f83011261420a57600080fd5b8135614218613db682613d71565b8181529084028301840190848101908c83111561423457600080fd5b938501935b828510156142595761424a856140af565b82529385019390850190614239565b98505050604089013592508083111561427157600080fd5b61427d8a848b01613dfd565b9550606089013592508083111561429357600080fd5b61429f8a848b01613dfd565b945060808901359250808311156142b557600080fd5b5050613efc88828901613dfd565b6000806000606084860312156142d857600080fd5b8335925060208401359150604084013567ffffffffffffffff8111156142fd57600080fd5b61430986828701613dfd565b9150509250925092565b60006020828403121561432557600080fd5b61432e826141a0565b9392505050565b60208152600061432e6020830184613f09565b84815260006007851061435d5761435d614059565b8460208301528360408301526080606083015261437d6080830184613f09565b9695505050505050565b600060208083018184528085518083526040860191506040848202870101925083870160005b828110156143db57603f198886030184526143c9858351613f09565b945092850192908501906001016143ad565b5092979650505050505050565b6000602082840312156143fa57600080fd5b813567ffffffffffffffff81111561441157600080fd5b61441d84828501613dfd565b949350505050565b60008060006060848603121561443a57600080fd5b833567ffffffffffffffff8082111561445257600080fd5b61445e87838801613dfd565b945060209150818601358181111561447557600080fd5b61448188828901613d95565b94505060408601358181111561449657600080fd5b8601601f810188136144a757600080fd5b80356144b5613db682613d71565b8181529084028201840190848101908a8311156144d157600080fd5b8584015b83811015614509578035868111156144ed5760008081fd5b6144fb8d8983890101613dfd565b8452509186019186016144d5565b508096505050505050509250925092565b60e060020a634e487b7102600052601160045260246000fd5b6000600182016145455761454561451a565b5060010190565b60e060020a634e487b7102600052603260045260246000fd5b80820180821115613b9a57613b9a61451a565b60028104600182168061458c57607f821691505b6020821081036145af5760e060020a634e487b7102600052602260045260246000fd5b50919050565b601f8211156145fb576000818152602081206020601f860104810160208610156145dc5750805b6020601f860104820191505b81811015612ebb578281556001016145e8565b505050565b815167ffffffffffffffff81111561461a5761461a613d27565b61462e816146288454614578565b846145b5565b602080601f831160018114614667576000841561464b5750858301515b60028086026008870290910a6000190419821617865550612ebb565b600085815260208120601f198616915b8281101561469657888601518255948401946001909101908401614677565b50858210156146b657878501516008601f88160260020a60001904191681555b5050505050600202600101905550565b6000816146d5576146d561451a565b50600019019056fea2646970667358221220ebabe559566d1698078901cae3a693bb1c12f5e4b2b6fd9399c26eec81c960a464736f6c63430008130033",
  "immutableReferences": {},
  "source": "// SPDX-License-Identifier: MIT\npragma solidity >=0.8.2 <0.9.0;\n\ncontract SupplyChain{\n    // Smart Contract owner will be the person who deploys the contract only he can authorize various roles Supplier, Manufacturer, Distributor, Retailer\n    address public Owner;\n\n    uint256 public actorCtr;\n    uint256 public productCtr;\n    uint256 public absoluteCtr;\n    uint256 public supLotCtr;\n    uint256 public manLotCtr;\n    uint256 public disLotCtr;\n    uint256 public retLotCtr;\n    uint256 public actionCtr;\n\n    // note this constructor will be called when smart contract will be deployed on blockchain\n    constructor() {\n        Owner = msg.sender;\n    }\n\n    // modifier to make sure only the owner is using the function\n    modifier onlyByOwner() {\n        require(msg.sender == Owner);\n        _;\n    }\n\n    modifier correctActor(ROLE _role){\n        bool cond=false;\n        for (uint256 i=0; i<=actorCtr; i++) {\n            if((Actors[i].addr == msg.sender) && (Actors[i].role == _role) && (msg.sender != Owner)) cond=true;\n        }\n        require(cond);\n        _;\n    }\n\n    // stages of a lot in supply chain\n    enum STAGE {\n        Supply,\n        Manufacturing,\n        Distribution,\n        Retail,\n        Sold\n    }\n\n    // roles for actor\n    enum ROLE {\n        Supplier,\n        Manufacturer,\n        Distributor,\n        Retailer\n    }\n\n    // all possible action\n    enum ACTION_TYPE {\n        Manufacture,\n        Distribution,\n        Retail,\n        Tranformation,\n        Alteration,\n        Integration,\n        Division\n    }\n\n    struct product {\n        uint256 id;\n        string name;\n        bool simple;\n        bool active;\n        uint256[] ingredient;\n        string[] hashFileProduct;\n    }\n\n    struct lot{\n        uint256 id; // unique lot id\n        uint256 absolute_id; // id for that lot in all the supply-chain\n        uint256 id_product; // lot of this product\n        uint256 size; // size in kg of the lot\n        string location; // location of the lot\n        address actor; // id of the actor for this particular lot\n    }\n\n    struct absolute_lot{\n        uint256 id; // unique lot id\n        uint256 id_product; // lot of this product\n        uint256 size;\n        STAGE stage; // current lot stage\n        bool active; //if it's active it means it's still the same lot\n    }\n\n    struct action{\n        uint256 id;\n        ACTION_TYPE actionType;\n        uint256[] source;\n        uint256[] sink;\n        uint256 duration;\n        string hashFileAction;\n    }\n\n    struct actor {\n        uint256 id;\n        address addr;\n        ROLE role;\n        string name; \n        string place;\n        string hashFileActor; \n    }\n\n    mapping(uint256 => product) public ProductStock;\n    mapping(uint256 => absolute_lot) public LotStock;\n    mapping(uint256 => lot) public SupLotStock;\n    mapping(uint256 => lot) public ManLotStock;\n    mapping(uint256 => lot) public DisLotStock;\n    mapping(uint256 => lot) public RetLotStock;\n    mapping(uint256 => action) public Actions;\n    mapping(uint256 => actor) public Actors;\n    mapping(uint => uint) public elementCount;\n    mapping (address => string) public userFiles;\n\n    function setFile(string memory file) external {\n        userFiles[msg.sender] = file;\n    }\n\n    function addActor(address _address, ROLE[] memory _role, string memory _name, string memory _place, string memory hashFileAcor) public onlyByOwner() {\n        for(uint256 i=0; i<_role.length; i++){\n            actorCtr++;\n            Actors[actorCtr] = actor(actorCtr, _address, _role[i], _name, _place, hashFileAcor);\n        }\n    }\n\n    function addProduct(string memory _name, uint256[] memory _ingredient, string[] memory hashFileProduct) public onlyByOwner() {\n        productCtr++;\n        bool simple = true;\n        if (_ingredient.length != 0) simple = false;\n        ProductStock[productCtr] = product(productCtr, _name, simple, true, _ingredient, hashFileProduct);\n    }\n\n    function deleteProd(uint256 _id) public onlyByOwner() {\n        ProductStock[_id].active=false;\n    } \n\n    function addLot(uint256 _prodId, uint256 _size, string memory _location) public {\n        absoluteCtr++;\n        supLotCtr++;\n        LotStock[absoluteCtr] = absolute_lot(absoluteCtr, _prodId, _size, STAGE.Supply, true);\n        SupLotStock[supLotCtr] = lot(supLotCtr, absoluteCtr, _prodId, _size, _location, msg.sender);\n    }\n\n    function baseActions(uint256[] memory _source, string memory _location, ROLE _role, uint256 _duration, string memory hashFileAction) public correctActor(_role) {\n        actionCtr++;\n        uint256[] memory sink = new uint[](1);\n        if (_role == ROLE.Manufacturer){\n            require(LotStock[SupLotStock[_source[0]].absolute_id].stage == STAGE.Supply);\n            manLotCtr++;\n            sink[0] = manLotCtr;\n            ManLotStock[manLotCtr] = lot(manLotCtr, SupLotStock[_source[0]].absolute_id, SupLotStock[_source[0]].id_product, SupLotStock[_source[0]].size, _location, msg.sender);\n            LotStock[SupLotStock[_source[0]].absolute_id].stage = STAGE.Manufacturing;\n            Actions[actionCtr] = action(actionCtr, ACTION_TYPE.Manufacture, _source, sink, _duration, hashFileAction);\n        } else if (_role == ROLE.Distributor){\n            require(LotStock[ManLotStock[_source[0]].absolute_id].stage == STAGE.Manufacturing);\n            disLotCtr++;\n            sink[0] = disLotCtr;\n            DisLotStock[disLotCtr] = lot(disLotCtr, ManLotStock[_source[0]].absolute_id, ManLotStock[_source[0]].id_product, ManLotStock[_source[0]].size, _location, msg.sender);\n            LotStock[ManLotStock[_source[0]].absolute_id].stage = STAGE.Distribution;\n            Actions[actionCtr] = action(actionCtr, ACTION_TYPE.Distribution, _source, sink, _duration, hashFileAction);\n        } else if (_role == ROLE.Retailer){\n            require(LotStock[DisLotStock[_source[0]].absolute_id].stage == STAGE.Distribution);\n            retLotCtr++;\n            sink[0] = retLotCtr;\n            RetLotStock[retLotCtr] = lot(retLotCtr, DisLotStock[_source[0]].absolute_id, DisLotStock[_source[0]].id_product, DisLotStock[_source[0]].size, _location, msg.sender);\n            LotStock[DisLotStock[_source[0]].absolute_id].stage = STAGE.Retail;\n            Actions[actionCtr] = action(actionCtr, ACTION_TYPE.Retail, _source, sink, _duration, hashFileAction);\n        }\n    }\n\n    function sellLot(uint256 _absoluteId) public {\n        bool cond=false;\n        for (uint256 i=0; i<=actorCtr; i++) {\n            if((Actors[i].addr == msg.sender) && (Actors[i].role == ROLE.Retailer)) cond=true;\n        }  \n        require(cond);\n        LotStock[_absoluteId].stage = STAGE.Sold;\n    }\n\n    function destruction(uint256 _absoluteId) public {\n        require(LotStock[_absoluteId].stage != STAGE.Sold);\n        if (LotStock[_absoluteId].stage >= STAGE.Supply){\n            for (uint256 i=0; i<=supLotCtr; i++) {\n                if (SupLotStock[i].absolute_id == _absoluteId) require(SupLotStock[i].actor==msg.sender);\n            }\n        }\n        if (LotStock[_absoluteId].stage >= STAGE.Manufacturing) {\n            for (uint256 i=0; i<=manLotCtr; i++) {\n                if (ManLotStock[i].absolute_id == _absoluteId) require(ManLotStock[i].actor==msg.sender);\n            }\n        }\n        if (LotStock[_absoluteId].stage >= STAGE.Distribution){\n            for (uint256 i=0; i<=disLotCtr; i++) {\n                if (DisLotStock[i].absolute_id == _absoluteId) require(DisLotStock[i].actor==msg.sender);\n            }\n        }\n        if (LotStock[_absoluteId].stage >= STAGE.Retail){\n            for (uint256 i=0; i<=retLotCtr; i++) {\n                if (RetLotStock[i].absolute_id == _absoluteId) require(DisLotStock[i].actor==msg.sender);\n            }\n        }\n        for (uint256 i=1; i<=actionCtr; i++){\n            if ((Actions[i].actionType == ACTION_TYPE.Manufacture) || (Actions[i].actionType == ACTION_TYPE.Alteration) || (Actions[i].actionType == ACTION_TYPE.Tranformation)){\n                if (ManLotStock[Actions[i].sink[0]].absolute_id == _absoluteId) delete Actions[i];\n            } \n            else if (Actions[i].actionType == ACTION_TYPE.Division){\n                if (ManLotStock[Actions[i].source[0]].absolute_id == _absoluteId) delete Actions[i];\n                for (uint256 j=0; j<=Actions[i].sink.length; j++) {\n                    if (ManLotStock[Actions[i].sink[j]].absolute_id == _absoluteId) delete Actions[i];\n                }\n            } \n            else if (Actions[i].actionType == ACTION_TYPE.Integration){\n                if (ManLotStock[Actions[i].sink[0]].absolute_id == _absoluteId) delete Actions[i];\n                for (uint256 j=0; j<=Actions[i].source.length; j++) {\n                    if (ManLotStock[Actions[i].source[j]].absolute_id == _absoluteId) delete Actions[i];\n                }\n            } \n            else if (Actions[i].actionType == ACTION_TYPE.Distribution) {\n                if (DisLotStock[Actions[i].sink[0]].absolute_id == _absoluteId) delete Actions[i];\n            }\n            else if (Actions[i].actionType == ACTION_TYPE.Retail){\n                if (RetLotStock[Actions[i].sink[0]].absolute_id == _absoluteId) delete Actions[i];\n            }\n        }\n        if (LotStock[_absoluteId].stage >= STAGE.Supply){\n            for (uint256 i=0; i<=supLotCtr; i++) {\n                if (SupLotStock[i].absolute_id == _absoluteId) delete SupLotStock[i];\n            }\n        }\n        if (LotStock[_absoluteId].stage >= STAGE.Manufacturing) {\n            for (uint256 i=0; i<=manLotCtr; i++) {\n                if (ManLotStock[i].absolute_id == _absoluteId) delete ManLotStock[i];\n            }\n        }\n        if (LotStock[_absoluteId].stage >= STAGE.Distribution){\n            for (uint256 i=0; i<=disLotCtr; i++) {\n                if (DisLotStock[i].absolute_id == _absoluteId) delete DisLotStock[i];\n            }\n        }\n        if (LotStock[_absoluteId].stage >= STAGE.Retail){\n            for (uint256 i=0; i<=retLotCtr; i++) {\n                if (RetLotStock[i].absolute_id == _absoluteId) delete RetLotStock[i];\n            }\n        }\n        delete LotStock[_absoluteId];\n    }\n\n    function transform(uint256[] memory _source, string memory _location, uint256 _duration, string memory hashFileAction) public {\n        bool cond=false;\n        uint256[] memory sink = new uint256[](1);\n        for(uint256 i=0; i<=manLotCtr; i++){\n            if((LotStock[ManLotStock[i].absolute_id].active) && (ManLotStock[i].absolute_id == ManLotStock[_source[0]].absolute_id) && (ManLotStock[i].actor == msg.sender)){\n                cond=true;\n            }\n        }\n        //require(cond);\n        LotStock[ManLotStock[_source[0]].absolute_id].active=false;\n        actionCtr++;\n        manLotCtr++;\n        absoluteCtr++;\n        sink[0] = manLotCtr;\n        LotStock[absoluteCtr] = absolute_lot(absoluteCtr, LotStock[ManLotStock[_source[0]].absolute_id].id_product, LotStock[ManLotStock[_source[0]].absolute_id].size, STAGE.Manufacturing, true);\n        ManLotStock[manLotCtr] = lot(manLotCtr, absoluteCtr, LotStock[ManLotStock[_source[0]].absolute_id].id_product, LotStock[ManLotStock[_source[0]].absolute_id].size, _location, msg.sender);\n        Actions[actionCtr] = action(actionCtr, ACTION_TYPE.Tranformation, _source, sink, _duration, hashFileAction);\n    }\n\n    function integrate(uint256[] memory _absoluteIds, string memory _location, uint256 _duration, string memory hashFileAction) public {\n        bool same=true;\n        uint256 index;\n        uint256 count=0;\n        uint256 size = LotStock[_absoluteIds[0]].size;\n        uint256[] memory ingridients = new uint256[](_absoluteIds.length);\n        uint256[] memory sink = new uint256[](1);\n        uint256[] memory source = new uint256[](_absoluteIds.length);\n        for (uint256 i = 1; i < _absoluteIds.length; i++) {\n            require(LotStock[_absoluteIds[0]].active);\n        }\n\n        ingridients[0] = LotStock[_absoluteIds[0]].id_product;\n\n        for(uint256 i=0; i<=manLotCtr; i++){\n            for (uint j=0; j < _absoluteIds.length; j++) {\n                if ((ManLotStock[i].absolute_id == _absoluteIds[j]) && (LotStock[_absoluteIds[j]].active)) {\n                    source[count] = ManLotStock[i].id;\n                    count++;\n                    break;\n                }\n            }\n        }\n\n        for (uint256 i = 0; i < _absoluteIds.length; i++) {\n            LotStock[_absoluteIds[i]].active = false;\n        }\n        \n        for (uint256 i = 1; i < _absoluteIds.length; i++) {\n            if (LotStock[_absoluteIds[i]].id_product != LotStock[_absoluteIds[0]].id_product) same=false;\n            ingridients[i] = LotStock[_absoluteIds[i]].id_product;\n            size += LotStock[_absoluteIds[i]].size;   \n        }\n        manLotCtr++;\n        absoluteCtr++;\n        actionCtr++;\n        sink[0] = manLotCtr;\n        if (same){\n            ManLotStock[manLotCtr] = lot(manLotCtr, absoluteCtr, LotStock[_absoluteIds[0]].id_product, size, _location, msg.sender);\n            LotStock[absoluteCtr] = absolute_lot(absoluteCtr, LotStock[_absoluteIds[0]].id_product, size, STAGE.Manufacturing, true);\n        } else {\n            for (uint256 i=0; i<=productCtr; i++){\n                if((ProductStock[i].simple==false) && (checkArray(getProductIngredient(ProductStock[i].id), ingridients))){\n                    same=true;\n                    index = ProductStock[i].id;\n                }\n            }\n            require(same);\n            ManLotStock[manLotCtr] = lot(manLotCtr, absoluteCtr, ProductStock[index].id, size, _location, msg.sender);\n            LotStock[absoluteCtr] = absolute_lot(absoluteCtr, ProductStock[index].id, size, STAGE.Manufacturing, true);\n        }\n        Actions[actionCtr] = action(actionCtr, ACTION_TYPE.Integration, source, sink, _duration, hashFileAction);\n    }\n\n    function division(uint256 _absLotId, uint256[] memory _sizes, string memory _location, uint256 _duration, string memory hashFileAction) public {\n        uint256 sum;\n        actionCtr++;\n        uint256[] memory source = new uint256[](1);\n        uint256[] memory sink = new uint256[](_sizes.length);\n        for (uint256 i=0; i<_sizes.length; i++){\n            sum += _sizes[i];\n        }   \n        require(sum == LotStock[_absLotId].size);\n        for (uint256 i=0; i<=manLotCtr; i++){\n            if((LotStock[ManLotStock[i].absolute_id].active==true) && (ManLotStock[i].absolute_id == _absLotId)) {\n                require(ManLotStock[i].actor==msg.sender);\n                source[0] = ManLotStock[i].id;\n            }\n        }\n        for (uint256 i=0; i<_sizes.length; i++){\n            manLotCtr++;\n            absoluteCtr++;\n            sink[i]=manLotCtr;\n            ManLotStock[manLotCtr] = lot(manLotCtr, absoluteCtr, LotStock[_absLotId].id_product, _sizes[i], _location, msg.sender);\n            LotStock[absoluteCtr] = absolute_lot(absoluteCtr, LotStock[_absLotId].id_product, _sizes[i], STAGE.Manufacturing, true);\n        }  \n        Actions[actionCtr] = action(actionCtr, ACTION_TYPE.Division, source, sink, _duration, hashFileAction);\n        LotStock[_absLotId].active = false;\n    }\n\n    function getProductIngredient(uint256 _productId) public view returns (uint256[] memory) {\n        return ProductStock[_productId].ingredient;\n    }\n\n    function getProductHahs(uint256 _productId) public view returns (string[] memory) {\n        return ProductStock[_productId].hashFileProduct;\n    }\n\n    function getSourceAction(uint256 _actionId) public view returns (uint256[] memory){\n        return Actions[_actionId].source;\n    }\n\n    function getSinkAction(uint256 _actionId) public view returns (uint256[] memory){\n        return Actions[_actionId].sink;\n    }\n\n    function checkArray(uint256[] memory array1, uint256[] memory array2) internal returns(bool){\n        for (uint i = 0; i < array1.length; i++) {\n            elementCount[array1[i]]=0;\n        }\n        for (uint i = 0; i < array2.length; i++) {\n            elementCount[array2[i]]=0;\n        }\n        if (array1.length != array2.length) {\n            return false;\n        }\n        for (uint i = 0; i < array1.length; i++) {\n            elementCount[array1[i]]++;\n        }\n        for (uint i = 0; i < array2.length; i++) {\n            elementCount[array2[i]]--;\n        }\n        for (uint i = 0; i < array1.length; i++) {\n            if (elementCount[array1[i]] != 0) {\n                return false;\n            }\n        }\n        return true;\n    }\n}",
  "sourcePath": "C:\\Users\\pietr\\OneDrive\\Desktop\\UNIBS\\Tesi_magi\\SupplyChain_AgriFood\\contracts\\SupplyChain.sol",
  "compiler": {
    "name": "solc",
    "version": "0.8.19+commit.7dd6d404.Emscripten.clang"
  },
  "schemaVersion": "3.4.16",
  "updatedAt": "2024-02-08T11:42:05.208Z",
  "networkType": "ethereum",
  "devdoc": {
    "kind": "dev",
    "methods": {},
    "version": 1
  },
  "userdoc": {
    "kind": "user",
    "methods": {},
    "version": 1
  }
}